:0200000407FCF7
:10000000D05BFC07BD01FC07C501FC07DD01FC0757
:1000100000000000000000000000000000000000E0
:10002000000000000000000000000000F501FC07D7
:100030000000000000000000F701FC07A717FC0704
:10004000B91BFC07F31BFC07A526F0074118FC07AA
:10005000E91AFC07FB01FC079516FC07FB01FC07EE
:10006000FB01FC07FB01FC072314FC072714FC071A
:100070002B14FC072F14FC073314FC07FB01FC07AF
:100080006D14FC07FB01FC07FB01FC07FB01FC07EF
:10009000FB01FC07FB01FC07FB01FC07FB01FC0764
:0800A000000000008E070E00B5
:0200000407FCF7
:100110000448854604F0D4FA004800476503FC070C
:10012000C046C046D05BFC0710B51F480189C9080E
:10013000C9000181018A1D4CC90713D0808800289D
:1001400010D11B481949428820310A8182888A804F
:10015000C2880A80618AFF22813200889143C001EF
:10016000014361821349062008800F2000F00EF839
:10017000012000F00BF8002000F008F8608904214D
:10018000884360810020208062B610BD002809DB12
:10019000C106C90E0120884007490860BFF34F8F90
:1001A000BFF36F8F70470000000300500000005045
:1001B000A000FC070034005080E100E00F488047B9
:1001C0000F48004704207146084203D0EFF309802E
:1001D0000C490847EFF308800A4908470420714694
:1001E000084203D0EFF3098007490847EFF308807E
:1001F00005490847FEE7FEE7FEE7FEE72901FC07A1
:100200001101FC07A502FC070D02FC0710B504460E
:1002100020484089C00508D51B2000F0A5FF1D48D7
:1002200060300188012211430180052212071088E5
:10023000518A0007800FFF2381339943C001014396
:10024000518215492068086060684860A06888602D
:10025000E068C8602069086160694861A0698861D8
:10026000E069C8610C620D48836A4B62C36A8B62A5
:10027000036BCB62C36B0B63436B4B63806B886315
:10028000074908200880908AC00601D500BE10BD2D
:10029000FEE70000200000500090FC0700ED00E0A9
:1002A0000033005070B5052504462D07288A042127
:1002B00008432882288940210843288124480126B0
:1002C000066024490820088023484089C00507D5D6
:1002D0001B2000F049FF2048603001883143018035
:1002E0002888698A0007800FFF2281329143C0016C
:1002F0000143698219492068086160684861A06803
:100300008861E068C8612069086260694862A06924
:100310008862E069C8620C631148826A4A63C26AF3
:100320008A63026BCA63C26B0C4940310A60426B3C
:100330004A60806B8860A88AC00608D500BE688ABB
:10034000012180088000C9030843688270BDFEE770
:1003500080E200E000330050200000504090FC0795
:1003600000ED00E008B500F0C4F800F041FB052402
:1003700024070825C826A74F0DE0012000F0FAF950
:1003800000200090042168464DF7D8FB002817D0C4
:1003900000F0B3FA14E02089000611D5012080078F
:1003A000006B00040CD49C480078C00708D15DF7AE
:1003B00024F8002000F0DEF9984800780428DCD00A
:1003C00072B601F0ABFC042806D002280BD003283B
:1003D00009D0012817D017E091480078012801D0F2
:1003E000032000E0022000F04EF8A08AC00601D5EC
:1003F0008C48058030BFA08AC00601D58948458059
:1004000000F005F800E030BF62B63E80C3E710B5EB
:1004100000F080F9844902280CD105200007408AA9
:10042000C005820F814802800A8942808A888280C2
:100430000A88C28048896021C00500280ADB7A4802
:1004400060300088C00705D0774A2032508A884340
:1004500020305082764882888A43203282807548D4
:10046000C078002807D07448006801898AB24168C2
:1004700003205CF723F903F059F87048016904225E
:100480009143016110BD38B5694605240870240701
:10049000218A054604221143218200F063F8624854
:1004A00041896022C905002905DB5F4B2033598A49
:1004B0009143403159825E498B88934340338B800E
:1004C000022D01D0032D13D1818849084900818074
:1004D000002000900099491C00911429FADB6189E1
:1004E00089088900491C618161894906FCD56080C1
:1004F00038BDF0B55248534905230127524A884276
:1005000001D31C4604E0904201D33C4600E00024A5
:100510004E4D4F4E4748AD194E4E8470AD190126D1
:10052000B6034560B54201D8142500E000252540FA
:10053000494C45708C4213D2484B2546EB189442E7
:1005400005D38B4201D211230AE03B4608E09342D7
:1005500001D2142304E08B4201D2102300E00023D7
:100560000370F0BDF8B5022801D0032848D1334A02
:10057000136904210B4313612D4A203A93895B08C8
:100580005B009381052410222A4E240702287578E7
:10059000608A36D010436082608A08436082706847
:1005A000C01C870801F02AFA608A10210843608283
:1005B0002B487F1E0762EFF31080012181F3108822
:1005C0002188802291432180002800D0012080F3DF
:1005D000108815484089C0050AD501F0FDF90B20A7
:1005E00000F0C2FD104860300188012211430180F3
:1005F00003205CF789F8002806D00120F0702583DD
:10060000F8BD90436082F3E70020F0703078054039
:10061000F5E700000031005054BAFC07048DFC07D8
:10062000B4BAFC070033005020000050A000FC07C3
:1006300020030050C08BFC0758B9FC0700ED00E018
:10064000C08BFC070070FC070040FC071001FC0792
:100650008C500000000004F8D05BFC070C04000084
:100660000000F407704770B50D46002442F747F9C3
:100670002855641CE4B2202CF8D3002070BD10B5BE
:100680005EF728FD10BD10B55EF72DFD10BD70475B
:10069000704770470649884200D000BE052109070F
:1006A000488A012280088000D203104348827047A4
:1006B000111111112B480178002902D080214170BD
:1006C00070472949002008702849C870704725499B
:1006D0000A78002A03D000280CD002200BE0002862
:1006E00001D0022000E001201F4908701F490120AD
:1006F000C87070470120803048707047002805D0CE
:10070000012804D0022804D10120E0E7D2E700202C
:10071000FBE77047144900200978002904D001291B
:1007200003D0022900D102207047012070470D48F4
:10073000C07870470020EFF31081012282F3108807
:10074000052212071289120605D4094802890123DD
:100750001A4302811846002900D0012181F3108834
:1007600070470000C88BFC07B4BAFC0754BAFC07FA
:100770000033005010B5FE4CA178002921D0FD496E
:10078000002803D008884007FCD402E0088840070E
:1007900017D4CA88888811040A180020A070F64867
:1007A00000235043800B401C4008E0611F2040069E
:1007B000492162F755FEE162A06264214843000CC2
:1007C000A06110BDEB4948800888032210430880CF
:1007D0000888042210430880E5490120887070478A
:1007E00070B50520000701893022914301810189FC
:1007F0008022114301810189082211430181DF49CF
:100800000A88520852000A80438918229343438180
:10081000048940231C430481048A0425AC430482D8
:10082000848AA407FCD5D24DAA246C61CD8801240A
:100830000F263602B5430B263602AD19CD80CD8882
:100840002543CD8044899443083444814A88520822
:1008500052004A8001899943018101208007016883
:10086000821591430160C64801683F2252029143BC
:10087000421489180160016802031143016070BDD0
:1008800010B5BB490122D203C969904205D303F0D8
:1008900029FF8905800A084310BD4843800A10BD1E
:1008A000EEE710B5B24989694843B6494018490096
:1008B0005EF7A8FB10BDF4E770B500F0DEFB044660
:1008C000FFF7F9FFAA4D288120463C30FFF7F3FFE0
:1008D000AD49001D88602A891018C01DAB4A4860C8
:1008E0001278022A01D111304860FFF7D9FFA849D8
:1008F000401880B25CF712FE70BDF0B5A54985B016
:100900000120C863C86B0028FCD101208007C069A2
:10091000974C2169884201D2002121611922411A94
:10092000D20191422AD320619B48018803914188DA
:1009300002918788C688994903C900900191684649
:1009400000F087FE00F0AFFE0546012020567F280C
:100950000CD0281A40B2002801DA404240B20828E0
:1009600005DBE068401CE06001F095FB65708A489B
:10097000029941808780C6800399018005B0F0BD4F
:100980000020704710B5864900200860FFF794FFEB
:1009900001208007016B49004908016310BD08B5BB
:1009A0007349888075498A88520852008A800022DB
:1009B00000920099491C00911429FADB05210907CE
:1009C0004B899B089B005B1C4B814B895B06FCD5CC
:1009D0004880E120C0000092521C00928242FBDB62
:1009E000488980088000488148890006FCD508BDF8
:1009F000F8B56C48C8210180002141806A4808246C
:100A0000448000F0F7FB694DA988684601800088A2
:100A1000C046C04668460088042398433ED0002064
:100A2000A8806248203001880F2292021143018081
:100A3000524E2036718A21437182504960310A88B2
:100A40000625AA430A800588CA0115430580758AD0
:100A500095437582B28A0E25AA43921DB282474AF7
:100A60005589534FED050D881DD5BD435701ED192F
:100A70000D800D880F022D052D0DED190D800588B7
:100A80002543058005889D4305800D886D086D0010
:100A90000D8001884025A943018020E0288A400874
:100AA00040002882BDE7BD4303277F02ED190D807A
:100AB0000D880F273F033D430D800588A543058022
:100AC00005889D430580B58A03277F02BD43B58213
:100AD0000D8801273D430D8051894907FCD50188C8
:100AE000032529430180718A6025A9432031718241
:100AF0008188A9432031818001201D4E0525307059
:100B00002D07E88AC02188438030E882108A000AD5
:100B100000021082108B1C21884308301083254866
:100B20000380A8880121C9028843A880480122497E
:100B3000086000F063FF022000F025FF1F4F3869B6
:100B4000C0B2AA2875D0012029880C2291438000C8
:100B500001432980C046C0460548203000F0B6FA5F
:100B600000F02AF900F086FA002864D028E000009E
:100B7000D08BFC070016005011110100200000501E
:100B80000002004020A10700A051FC07B4BAFC07F6
:100B9000E2040000C000004000150050204AFC079D
:100BA000A8B9FC070031005000330050000300508A
:100BB000000F00000002005080E200E0C07FF80754
:100BC00000F058FAFFF7EBFE7F207070B86A1E49FC
:100BD000086000F043FF00F041F802F0A7FC01209C
:100BE00041F793FEFFF7FCFD1848006841F732FB20
:100BF00017490020C870087101208007016882151C
:100C00001143016000F08AFD1E20FFF7DBFD01208B
:100C1000FFF7B0FDFFF74EFD01F0BDFF01F012FE42
:100C2000FFF7B0FE0B49C82008800B484480F8BD90
:100C3000FFE7032088E73869C0B2AA2801D06E20F8
:100C4000C0E78020BEE70000A051FC074CB9FC07BC
:100C500054BAFC07003100500033005070B53548DD
:100C6000334D006834492C6892B0884205D0052283
:100C70005202324932485EF73FFA324E324930462C
:100C80005EF753FA0721314809025EF74EFA2C60ED
:100C900003F0FEFC2F492E4808602F4800240480F2
:100CA00030222E492E485EF727FA294908220839B2
:100CB00003C91191109010A92A485EF71DFA244922
:100CC0004022283168465EF717FA402269462648D6
:100CD0005EF712FA2548274904702548086027491D
:100CE0002548086027492648086027490A200870D7
:100CF00026482749047032200870264905200860DC
:100D0000254A01211160254908602549062008600F
:100D1000244907200860244908200860FF2023494F
:100D200007300860224908602248066012B070BD92
:100D30005CBAFC079CB8FC076587341200B0FC075E
:100D4000B48EFC0700A0FC07AC14000000B9FC073F
:100D5000304AFC0760BAFC07008CFC077CFCF107FA
:100D600000BAFC07DAB9FC07B0BCFC07FDB9FC0708
:100D7000603FF20750B9FC07B847FC0754B9FC07BD
:100D80003449FC0758B9FC07B0B9FC07B1B9FC07F6
:100D9000D9B9FC075CB9FC0760B9FC0764B9FC076A
:100DA00068B9FC076CB9FC0770B9FC0748B9FC07C7
:100DB00044B9FC074CB9FC07F0B5B84C89B0002029
:100DC0002076607603900120C046C046B448016991
:100DD000B448814202D0C01709B0F0BDB04F04251D
:100DE000403FE819016D0191090F092910D0012236
:100DF0000198920790427AD3AB4A904277D8AB4998
:100E00000835884274D1E819C16CA9484180A6E030
:100E1000019A01991204C9B2160E112935D007DCC6
:100E20000B005EF7BDF9087474747474740D1F744C
:100E300012390B005EF7B4F9063A4B5D6B60656BD7
:100E4000207EB200C10095484038081894491431FA
:100E500069185EF751F9207E8019C0B22076042807
:100E600054D854E0607EB200C1008C484038081865
:100E70008B491030143169185EF73EF9607E801995
:100E8000C0B260760C2841D841E0416D89B2029130
:100E9000406D000C01460490029800F0F1F8A0802B
:100EA0000499029800F0F4F8E08030E0416D89B2D6
:100EB0000491406D000C01460290049800F0E0F8A7
:100EC00020810299049800F0E3F860811FE0039804
:100ED00005A9800040187249B200143169185EF704
:100EE0000BF903988019039002280FD80FE02BE02C
:100EF00010E0406D60820AE0416D6848403801644E
:100F000005E0406D0004000CA08200D100BEB000DE
:100F100045194DE065492639884203D1E819C06C6E
:100F2000E0821CE06149091F884204D1E819C06CC5
:100F30005F49888013E05D49083988420FD1E8197C
:100F4000C06C5B49C8800AE007292ED008292FD041
:100F50000A292DD006292BD0401C07D000BE5048AE
:100F6000103029185348814200D23AE70598A081F1
:100F70000698050C86B22946304600F081F8E081DB
:100F80002946304600F084F82082207EC10700D038
:100F900000BE40082076607EC10700D000BE400839
:100FA0006076A18A002905D007E00020C046C0462F
:100FB0002D1DD4E77D21C900A182042800D000BEE8
:100FC000002009E7F8B5354C0025403C334F24E0BC
:100FD000EE00A059384988421AD130190090406873
:100FE000800A400414D001F03BFB092810D9009876
:100FF000032240681202014609041040890E08438A
:10100000A159086000982D494068C001C00D02E058
:1010100030194068A15908606D1C387EA842D7DCA1
:10102000F8BDF8B51D4C0025403C2746403717E079
:10103000E80006192248316981420DD101F010FB08
:10104000092809D91F49706908401C4909884904C1
:1010500008433169086002E03069716901606D1C04
:10106000787EA842E4DCF8BD0C48808970470B48C4
:10107000408A70470948C08A70470848808A70478C
:10108000081A0104890C40180F49401800B2704733
:10109000C2008018401A0004C0147047448CFC073A
:1010A000C07EF807A5A5A5A54C4200502800005019
:1010B000A000FC07C07FF8074C100040AC51FC07B3
:1010C00038300040FFFF01FC0100FFFF10B5062291
:1010D00001495EF711F810BDD47FF807052000071D
:1010E00001883022114301800188032211430180CD
:1010F0007047052000070188302291430180018854
:10110000890889000180704736490A8B03231B0236
:101110009A43000202430A83704733498A8A0323B1
:101120005B029A43C3085B021A438A828A8A0723B6
:10113000DB0240079A43800C02438A822A484030EF
:10114000018801221143018027482038418949073D
:10115000FCD570472448818A808A4905890F80041C
:10116000400FC900081870471F498A8A03235B0291
:101170009A43C3085B021A438A828A8A0723DB02E6
:1011800040079A43800C02438A82704710B5044698
:10119000154820384089C00502D40120C04310BD45
:1011A00000F017FC002806D0FFF7D4FFA04202D9B8
:1011B0000020C04310BD0C48408AC00408D40B482E
:1011C0000088000704D4082C02D20420C04310BDBC
:1011D00007480121047041702046FFF79EFF002060
:1011E00010BD00002030005040000050200300508F
:1011F000B051FC07F0B585B00026974C02960298D6
:101200003021484300960019009989004650009902
:10121000491C00910C29F7DB0298401C0290012820
:10122000EDDB02F015F98C4D0021083D2960696065
:101230000127029600200090029988484900465AEA
:1012400000993846884080B206421DD0029830216D
:1012500048430099001989004058411C1BD00028C0
:101260000DD0C117009A5DF78BFF029A12015DF74E
:1012700087FF2A686B6810431943286069600098EB
:10128000401C00900C28DBDB0298401C02900128D7
:10129000D0DB05B0F0BD00BEE3E7F8B51646054665
:1012A0000C460A461F46012000215DF769FF2A010E
:1012B0005DF766FF684B083B1A685B681040194091
:1012C000084300D100BE6801654940186100081854
:1012D0003E43C680F8BD70B505460C460A4601205F
:1012E00000215DF74DFF2A015DF74AFF5A4A083A8F
:1012F0001368526818401140084300D100BE6801CD
:10130000574940180121A140818070BD70B5054644
:101310000C460A46012000215DF732FF2A015DF7E5
:101320002FFF4D4A083A136852681840114008438D
:1013300000D100BE68014A4940180121A140418006
:1013400070BDFFB581B00C4605460A461F46012018
:1013500000210A9E5DF714FF2A015DF711FF3E4B45
:10136000083B1A685B6810401940084300D100BE72
:10137000002E2146284602D0FFF7C8FF01E0FFF704
:10138000AAFF3B4621462846039AFFF786FF80E7DF
:1013900070B505460C460A46012000215DF7F0FEB7
:1013A0002A015DF7EDFE2C4A083A1368526818408E
:1013B0001140084300D100BE680129494018008847
:1013C0000121A140084000D0012070BD70B501246A
:1013D00021460A3881400D4688B200F02CF884403E
:1013E0002048C189A9430C43C48170BD10B504468F
:1013F0000A3804280BD82046FFF7E8FF1649A0005A
:10140000303140188038806D002801D0804710BDF1
:10141000002CFCDBE106C90E01208840124908605F
:1014200010BD0A20E2E70B20E0E70C20DEE70D20EC
:10143000DCE70E20DAE700280BD0411E4840C0034D
:10144000010C002002E04908401C80B20029FAD1BA
:101450007047102070470000688CFC07984AFC0712
:10146000003000500014005080E200E010B5FFF79B
:1014700040FE0522120790882049000504D5204B24
:101480001C880520A04311D09088C3061D481FD595
:101490008388DB071CD003881B0619D501228280B4
:1014A000028880239A430280486822E01888042238
:1014B0001043188018884008400018800C68002CE1
:1014C00005D00220185E995E0A229A5EA04710BDE0
:1014D0009288D206FBD582889207F8D50288D20579
:1014E000F5D5022282800288FF2301339A430280CD
:1014F00088680028EBD0804710BD0000AC8CFC074A
:1015000000020050000100507D48018801221203B2
:101510009143018070477A480188012212031143E8
:101520000180642000BF401EFCD170477449CA8806
:10153000D208D2000243CA8070477149CA8870231A
:101540009A4300010243CA807047F8B5050049D0AC
:101550006B4C2978208840229043890108432080E1
:101560006878FFF7EAFF2878002803D16878000937
:10157000FFF7DCFFE87804260128208833D0B04349
:1015800020802879A1880002C9B20143A180E088A7
:1015900001274006400F7F02042826D0FFF7B4FF42
:1015A000A8780F2800D900BE61880F22520291430B
:1015B000400201436180687961888908890001439C
:1015C0006180A879012820883BD0B8432080E87941
:1015D000072800D900BE6188FF22C13291438001F3
:1015E00001436180F8BD3043CAE7FFF740FD45493C
:1015F0000028088001D144480880FFF78CFF20882C
:101600003843208021884020814301432180608825
:10161000304360806088C004C00C608060880F2107
:1016200049028843084360806088FF21C1318843B4
:10163000FF218131084360806088800880006080DD
:10164000F8BD3843C2E72E480188012211430180CA
:10165000704770B505462A4C0020208021200001EB
:1016600060804020A080FFF7FFFCA081A18970204E
:1016700081434031A181062000F035F82846FFF76C
:1016800064FFFFF7E0FF70BD1D480188022211438F
:10169000018070471A490120C8811C480068002851
:1016A00000D00047704710B5FFF7EEFF14480188DF
:1016B0008907C90FFBD10121C181008A114A144950
:1016C0001288801A7D22D2005043002801DD4A1082
:1016D00002E0002801DA0F4A80185DF7A9FC8011AA
:1016E000193040B210BD002809DBC106C90E012027
:1016F000884009490860BFF34F8FBFF36F8F704771
:1017000000150050B251FC0740760000B88CFC0771
:10171000AA0500002BFDFFFF80E100E0F8B51D48A1
:101720001B4D0068A84231D0FF26C136012130464A
:101730005BF752F804461848016818480A0A017015
:1017400042700A0C8270090EC1700022A35CFF2156
:10175000C0319F07891ABF0F615CC75D794059404E
:10176000A154521CB242F1D30C481C222146001D48
:101770005FF756FC002800D000BE20465BF7A7F8B4
:101780000648406841F7C1F802480560F8BD00000E
:10179000658734129CB8FC07A051FC07B451FC07C4
:1017A00013490860704712480068002800D00047BD
:1017B0007047104A13695B085B00136153691B0E85
:1017C0001B06401E034353619069000E00069061A2
:1017D00010690223984349000843106110690421ED
:1017E00088431061106901210843106170470000AF
:1017F000BC8CFC0700E000E0544930B4884201D0C2
:10180000012100E00021524A4901891808E0838A39
:10181000DB07DB0F12D00388541C8D68CC81AB54DE
:10182000CA898B899A42F2D38288520852008280F8
:101830008A69002A02D0C88930BC104730BC704782
:1018400010B5444800F001F810BDF8B53F4D404ECA
:10185000044620890007000F062826D009DC01284D
:1018600040D002281DD00428F3D12046FFF7C4FF42
:10187000EFE7072828D00C28EBD1AC4201D001209B
:1018800000E00020400187192046FFF7B5FFA1883E
:1018900049084900A180B9690029DAD0F889884748
:1018A000D7E7204600F01FF8D3E72046AC4201D02E
:1018B000012100E00021490189190A69002AC8D0E4
:1018C000818A9E2319400BE02046AC4201D00121C1
:1018D00000E00021490189190A69002AB9D00121D3
:1018E0009047B6E7F8BD194930B4884201D00121CC
:1018F00000E00021164A490189180EE003891B0601
:101900009B0F032B1BD0838A9B06DB0F002B95D0EC
:10191000531C0C68CB80A25C0280CA888B889A42D8
:10192000ECD3828802239A438280828880239A4360
:1019300082804A69002A81D0888830BC10477C2385
:101940001B5A9B07DB0FE1E778E70000001000500F
:10195000C08CFC070011005010B50446FFF7FAFBDD
:10196000A04202D22046FFF7FFFB58480188C90772
:1019700008D101880122114301805448603841890F
:101980004907FCD510BD38B5514C054620684107C4
:10199000490F684601700078854219D04B4860387D
:1019A0004089C0050CD5A81E03005DF7F9FB0504AE
:1019B0000604040409000B2000E01320FFF7CCFF0D
:1019C0002068C008C0002843206060684007FCD53C
:1019D00038BD4048007870473E4900200870704785
:1019E000052109070988090600D400BE80003A498C
:1019F00009583748016139494161704710B5EFF323
:101A00001084012080F31088304860384089C00578
:101A10000BD5304901200870FFF79CFB3049087056
:101A20002A480088C007C00F4870052000070188B9
:101A300080221143018026480168C908C90001605D
:101A400041684907FCD50320FFF7CAFF002C03D0EB
:101A5000012080F3108810BD0020FAE770B5EFF385
:101A60001084012080F3108805210907088880224E
:101A70001043088016480368DB08DB0003604368F6
:101A80005B07FCD5174B0361144B436108889043F7
:101A900008800E4860384089C0050ED50D490020E9
:101AA0000F4D08702878FFF75FFB6878002804D195
:101AB00006480188490849000180002C03D0012014
:101AC00080F3108870BD0020FAE70000800000500D
:101AD0000000F407008DFC079C4AFC07090404A4DD
:101AE000B051FC070F00990910B50A4880890A49CE
:101AF000C96A002901D0884710BD042000F001F810
:101B000010BD002805DBC106C90E0120884003492D
:101B10000860704720130050C851FC0780E200E0C5
:101B2000F8B50125AD07AC6B2046FEF7B9FE694953
:101B3000694F4A68861800204860394630465DF78C
:101B400061FA664948603A465043301A00D0381A64
:101B500080B20860286B08218843084328636048E6
:101B6000046060480068002802D0A04200D200BE95
:101B7000F8BD10B5FFF7BDFA0520000741898907B8
:101B800003D041898908890041810189802211435C
:101B90000181018A042291430182818A8907FCD54F
:101BA00000F0B4F8012080070169490700D500BEA4
:101BB00001694907FCD510BD10B5FFF78FFA4A48F7
:101BC00001894907FCD4FFF794FA484805210088A9
:101BD000090748804648474C0088801E60800720DF
:101BE0002080FFF77BFA20884007FCD4FFF7C1FF75
:101BF00010BDF8B540480168C90703D0016802224A
:101C0000114301600168490204D50168012292056F
:101C10001143016001272F4EBD072C69002C57D0BE
:101C2000200606D58020A8614BF731FE1E20FEF766
:101C3000C9FDA00703D50220A86147F726FD2007AC
:101C40000AD50820A86102F0D0FC002047F7D6FC96
:101C50000420307000F0FBFCE00505D5FF200130CA
:101C6000A861012047F7CAFCA00504D50120400265
:101C7000A8614BF775FE600603D54020A86147F7C1
:101C8000B8FCE00603D51020A86146F775F8600798
:101C90000FD50420A8611448018949084900018131
:101CA0005BF712FC40F7CCFC1E20FEF78BFD0020FA
:101CB0003070E00706D00120A8615BF721FC4BF7EC
:101CC000E6FD3770A006A8D52020A86100BEA4E7D5
:101CD000F8BD0000048DFC077102000040000040C8
:101CE000148DFC070C8DFC0700330050D48BFC07CF
:101CF000D88BFC07001600500002004010B540F7DA
:101D0000E4FA674880686749486010BD10B540F73D
:101D100008FB644862494068886010BDF8B500253A
:101D200000F0B9F800270090FEF701FD01465E4E75
:101D30000020002902D13179022900D100905B49AD
:101D40000989C9070DD15AF724FC002809D0F07879
:101D50000125002805D005200007808AC00701D092
:101D6000042596E0308800287DD1FEF7E0FC0028AD
:101D700006D14F48806A002802D000F08CF800900D
:101D8000FEF79AFDB17868465BF7FBF900286AD048
:101D90000124A407206940067BD443488178684623
:101DA0004BF7CCFE002874D00120FFF7ADF9009965
:101DB000002906D0206AFF383938DA2801D8491EB0
:101DC00000913C4802883C48016850183B4A10602A
:101DD000E26B920A92020A43E263E16B384A1140D5
:101DE000384A1668B2021143E163E16BC902C90ABD
:101DF00040050143E163344A0098042500219042E4
:101E000000D300BE314B0CCB5DF726F90903000D62
:101E10000843244A401E711C1060884200D116609D
:101E200021480079002801D0012100E0002110683C
:101E300047F79AFD2648C06A8047FEF7A1FD0028B3
:101E400002D0FFF74BF90127154E206B0004C00F9D
:101E5000FBD03068C005FCD530688024A0433060DA
:101E6000002F03D000E014E0FFF743F90F49488941
:101E7000462804D24622174B101A18604A81FFF7F1
:101E80003DFF30680006FCD5052000070189A1430D
:101E900001812846F8BD10480068806A704700003C
:101EA000000200400C8DFC0754BAFC0700330050C0
:101EB00074BEFC07D88BFC07A851FC07F851FC073F
:101EC000FF03E0FFA451FC0740420F00F88BFC0722
:101ED00058BFFC07088DFC0758B9FC070020704765
:101EE0007047704710B5282801D2282002E0E62864
:101EF00000D9E620FF21F33148437D21C9005DF779
:101F000081F88130C0B210BD7047704710B502290A
:101F100002D0012900D000BE002802D0FF2802D044
:101F200000BE022902D000F09BFB10BD0C2010BDAA
:101F300001218907086B0722104308638C48016858
:101F4000021391430160704710B50220FFF7DCF8DF
:101F5000874801680203914301608648002141637C
:101F6000416B1F22120491434213891841630106F9
:101F70000868F0229043E030086010BD10B58AB0C8
:101F80007D4941627D4981627D4941610024302162
:101F90000C547C49C1627C4901607C4901627C49E6
:101FA00041607C49C16100F03EFB7248416B1F22D9
:101FB000120491434213891841636D480168C212AB
:101FC0009143016068460455641CE4B2282CFAD39E
:101FD000014671482822006840305DF78DF80920DD
:101FE00000F03BFB00F03FFB002802D0012000F096
:101FF00034FB00F019FBFEF7E5FFFFF712F800F0E5
:10200000D5F800F058F8FFF79FFF00F00BFB00F049
:1020100083F800F01CFB0AB010BD10B55548416BA9
:102020001F2212049143421389184163000601687C
:10203000C908C90001600520000701890822114371
:10204000018100F010FB002802D0012000F005FB08
:1020500000F0EAFAFEF7B6FFFEF7E3FF00F0A6F89D
:1020600000F029F8FFF770FF00F035F800F0EFFA04
:1020700010BD10B504467022484949485DF73CF848
:1020800047484830011B46481038018344495C31B9
:10209000091B418310BD10B500F0C6FAFEF7C1FF61
:1020A00000F084F800F007F800F0BCFA00F023F824
:1020B00000F0CDFA10BD2F4B10B540331868394CE5
:1020C0000102090EC2B20A3109040A32204011434A
:1020D0000143196010BD344A118B314810308369B7
:1020E0001B0C1B040B438361518BC269120C12043D
:1020F0000A43C26170472C4A203A118B284810309D
:10210000C3681B0C1B040B43C360518B0269120C88
:1021100012040A430261704710B5FFF7ECFFFFF7A6
:10212000DAFF21482038018A1D4810308268120CDD
:1021300012040A4382601C4A40329188036A1B0CD5
:102140001B040B430362D188426A120C12040A4337
:10215000426215494A88836A1B0C1B04134383623D
:102160008988C26A120C12040A43C26210BD0000C0
:102170000002004040000040DD1EFC07E11EFC079D
:102180000D1FFC07311FFC07E31EFC07091FFC079E
:102190000B1FFC07E51EFC074CB9FC07B84AFC07FF
:1021A00070A0FC0700FF00FF20300040F0B5FE48A3
:1021B000406B7F21090288430B2109024018FA492C
:1021C0004863086AF94980B24018F7490862886B89
:1021D000F749012208405203F34980188863F24806
:1021E0004030016903231B0219430161818B1024D4
:1021F00021438183EC482030818801242143818060
:10220000ED49EC480860ED4C20883F2109018843E6
:102210002F21090140182080E84820388169E84DC5
:10222000490D490549198161C169E64D29400925D2
:102230006D024919C1614168E34D2940E34D4919D7
:1022400041608168E24D2940E24D49198160C168D1
:10225000E14D2940E14D4919C1600169E04D294036
:10226000E04D49190161E049C51409780906491989
:10227000C1256D012943DD4D29600525DC49AD02ED
:102280000D816D1D8D81DA4920310D892D0A2D02B8
:1022900055350D818D25AD000D82D64D8D82D64DE3
:1022A0000D83D44D0E3D8D83D349D14DC91D40358D
:1022B0002980D249A181C16BD14C2140D14C09194F
:1022C000C163FF20D04C6C302080CF482030068B7B
:1022D0001F2149010B258E43AD0176190683CA489B
:1022E0004030868809278E43BF01F619868006890B
:1022F00015278E437F01F619068186898E43711951
:102300008181FF208D30A080BF4880300189E0248A
:10231000A14319430181818B490949011931818305
:10232000B2482030818B5B01994389188183AF4883
:1023300080300168C908C900C91C0160AB49B348B5
:1023400040314862F0BDA94908B500208031C8621B
:102350000090401C0090FF28FBDDAD480078AA49A2
:10236000C006820D4031C8681F235B0198431043AB
:10237000C86008BDA7488C490068403108608A4899
:102380008169890989011C3181618169C213914385
:102390008161016B3F221206914307229206891840
:1023A0000163016B3F22920191430F22D2018918F0
:1023B0000163016B890989011E31016370477A4805
:1023C000C16949084900C16170478F4808B540306C
:1023D000C1688F4A8905C90E1170C1681F22520158
:1023E0009143C16081490120887180488030C16A71
:1023F00003221143C16200200090401C0090FF287E
:10240000FBDD08BD08B579490220887100200090E5
:10241000401C00900B28FBDB08BD6348412101777D
:10242000C16903225202914302158918C1617047A4
:102430005D4840300168774A11600021C94301605E
:10244000594881698909890181618169C213914370
:102450008161C1690322520291430315C918C16108
:10246000C169702399434031C161016B3F231B0651
:1024700099430B235B06C9180163016B3F239B0142
:10248000994389180163016B890989011831016336
:102490007047F8B5554803274771434C6068C00939
:1024A000C00114306060FFF7C3FF43202077FFF7BF
:1024B000A9FFFFF78AFF0025261500950098401C0C
:1024C0000090B042FADB4949032048713648803019
:1024D0008068C705FF0DFFF736FF00950098401C88
:1024E00000901028FADBA0694002400AF905084371
:1024F000A061A06948490840B9010843A061FFF7FD
:102500008CFFFFF77FFFFFF760FF00950098401CEE
:102510000090B042FADB35490320487122488030F0
:102520008068C705FF0DFFF70EFF00950098401C5F
:1025300000901028FADBA0694002400AF905084320
:10254000A061A06934490840B9010843A061FFF7C0
:1025500064FFFFF757FFFFF738FF00950098401C16
:102560000090B042FADB2149032048710E488030C8
:102570008068C605A069F60D4002400AF1050843CF
:10258000A061A06924490840B1010843A061FFF798
:1025900016FFFFF7EFFEFFF7D6FE00950098401CF0
:1025A00000901028FADB39E00030004000008888F5
:1025B000FF00FEFF59055C0780000040202000401E
:1025C00009581A00FEE1FFFFE0E000000809294970
:1025D00000000303696A686C031FFFFF706000005E
:1025E000E0E0E0E00B0A0A08188DFC07001000404C
:1025F00020130040340A000051080000070F0000BB
:102600002F64E0FE101A0601001200405001500134
:102610008C51FC07FC51FC073F80FFFF13484681AB
:102620000120F8BD35E7704708B511480821017150
:1026300000210091009A521C0092102AFADB0091AE
:10264000491C00911029FBDB0321417108BD08489A
:10265000022181710021818070470649087070470E
:102660000448007870470348407870470052FC07E0
:1026700000100040188DFC07FFB585B00C46FD200A
:102680005EF7B6FD03900027684607700898694614
:10269000060A20885FF7D8FE05466088002800D02B
:1026A00000BE002D6AD1FD2000F090FE6946097839
:1026B0001423594342680B1DD35C022B21D151587E
:1026C000354A098891421CD10197029720885FF70B
:1026D00056FE002800D100BE01AB002204A94EF72F
:1026E00043FC049821468005C00F5FF733FE0506C2
:1026F0002D0E43D168460178E288304660F705F830
:1027000021E000280BD080698446002807D0684665
:10271000A2886188A31D00786546A84705460197F1
:102720000297208801A94EF79AF9002D26D1019829
:102730000089C00B07D16288A1882088A31D4EF7AD
:10274000F8F9051E1AD1314603985EF76FFD014670
:10275000A088079A801D83B210485AF74BF90746A4
:10276000A288A11D801D5CF7C7FC684600787880B0
:10277000A088B8803E7038465AF757F904230848B5
:10278000079A08995AF736F92188018085705AF717
:102790004CF9002009B0F0BD022900000AFD00003C
:1027A000160C0000F8B50025244CFF272E46002803
:1027B00013D1284610302661A082E7826660A660A9
:1027C000E681A681C0B2214626605AF712FB6D1C35
:1027D000EDB21834022DECD3F8BDE08A5EF78EFD21
:1027E000002802D0416820468847E7826660A660DC
:1027F000E681207D5AF757FB6D1CEDB21834022D8F
:10280000EBD3F8BDF1B50D4D0D4F00242E46E88AEF
:10281000FD2803D11820604380194760E88A5EF7DD
:102820006DFD002803D08268284600999047641CFB
:10283000E4B21835022CEAD3F8BD0000208DFC0765
:10284000804BFC0710B500F0B3FB60F751FF002090
:10285000FDF754FF10BD0C213B4A10B541438918C8
:102860008978FF2902D000F0DFF810BD00F06DFF7D
:1028700010BD10B500F069FF10BD10B560F720FE67
:10288000002801D000F061FF10BD10B500F05DFF21
:1028900010BD10B52D490A780270401C491C5CF728
:1028A0002BFC10BD2949498C01807047082101800B
:1028B00010214180002181807D21C180704770B549
:1028C0000C4601780025214B002904D0012909D0AC
:1028D0004820207070BD8278011D1A70581C5CF76A
:1028E0000BFC01E040885884257070BD0120087001
:1028F000002048808880704710B500F03CFC10BD77
:102900001FB54978002908D0114A012901D00229B0
:102910000DD101230092042206E00EA21ECA0394E8
:102920006C460EC401231022694600F043FC1FBD13
:1029300010B50446497800F083FA204600F079FC8F
:10294000204600F06AFC10BD6E8DFC077A8DFC07F6
:1029500040E20100000102030405060708090A0B12
:102960000C0D0E0F0021A34A05E0834201D1012086
:102970007047491CC9B20C234B43D35CFF2BF4D1E5
:102980000020704770B59B499B4C0E460C369B4D02
:102990000DE052185268002A07D0C2B20C235A43E5
:1029A00051184968401C60702DE0401C60706078D0
:1029B0000C2242438B5CFF2BEBD10AE0891949685A
:1029C000002903D0FFF7CEFF002809D02078401C53
:1029D000207021780C204143705CFF28EED117E075
:1029E00020780C21414389194968401C20700AE075
:1029F0004919C968002909D0C1B21C22514349199B
:102A0000C968401CA0708847002070BD401CA070A1
:102A1000A0781C2141436A5CFF2AE9D10020A07004
:102A200060702070012070BDF8B505460024714E1D
:102A30000AE080198168002904D0641CE4B22846A9
:102A4000884701E0641CE4B220460C214843315C15
:102A5000FF29EED1674E00240C3609E08F19B968C2
:102A6000002903D0FFF77EFF002809D0641CE4B2E0
:102A70000C216143705CFF28F0D100245F4E10E010
:102A8000641CB968E4B228468847F1E780190169F7
:102A9000002904D0641CE4B22846884701E0641C85
:102AA000E4B220461C214843315CFF29EED1F8BD39
:102AB00010B5514CE068002815D152230422092199
:102AC0004F4859F797FF0D21E060017000214170D8
:102AD0004C4A8280C28007220272817201224272B5
:102AE000C1722030C172E06810BDFEB5424EB068C0
:102AF00000284ED142482C2304220921093859F7D5
:102B000079FF032101700A21B0604170172101840F
:102B10000121817600250446458010210A305CF7AA
:102B200004FB39A103C9334F019100902C3F0622C9
:102B30003749781D5CF704FB002807D00522694659
:102B4000781D5CF7FDFA002808D008E02A48183004
:102B500000F0F1FD28490622183103E000BE00BE56
:102B60000622791D201D5CF7C7FA2020E076A58398
:102B7000E58328486584C08F0021002800D90846D5
:102B8000E0842448002140300088002800D908460D
:102B90002085B068FEBD3EB500251649009501951B
:102BA0000C223431684602955CF7A6FA12480C22D2
:102BB0001E3069465CF7A0FA0F4C20222A3422709E
:102BC00015A1601C5CF798FA0A4965842431042039
:102BD0005AF70FF9002104205AF73DF93EBD67E787
:102BE00010B5FFF782FF59F720FF034900208860E6
:102BF00010BD0000E84BFC07508DFC07A84DFC07FA
:102C00000D0D00004C040000FFFFFFFFFF0000005F
:102C1000DCF1F107F0BBFC07F09F99802054726152
:102C2000634B61742D424C452D4C6F61645F43656D
:102C30006C6C5F44656D6F320000000010B510468B
:102C40005AF71EF9002802D000BE002010BD012353
:102C500004220921754859F7CDFE0121017059F769
:102C6000E4FEF2E710B50C780F2C17D00CDC0C2C1E
:102C700014D004DC012C13D0032C0DD116E00D2C44
:102C80000CD00E2C08D109E0112C07D0122C05D045
:102C9000132C03D0172C01D000F082FD002010BDB2
:102CA0004878002805D1FFF79BFFF7E74878002810
:102CB00001D000BEF2E7FFF7E0FDEFE7F8B51C46F4
:102CC00010460E465AF7DCF8022802D000BE00205B
:102CD000F8BD240A00D000BE0C20274647435448C4
:102CE0003D18AC70FF2C1AD00121E970032104209B
:102CF0005AF7B1F84E483188C153707A287131467D
:102D0000681D06220A315CF7F7F97A2049496043C9
:102D100040186030017E0122204660F7E5FB314615
:102D2000204600F0DFFCD2E770B50D784C78092D15
:102D300004D0002C00D000BE00F032FD002070BD99
:102D400070B51D4610460C465AF79AF82A0A032811
:102D500002D000BE002070BD0C2042433448FF2149
:102D6000101881700021C170204600F0DBFCF1E7F3
:102D7000F0B508780025304C89B01F46164600286B
:102D800004D0012817D0022827D129E06846FFF790
:102D900080FD684603783246394620460A3359F7A3
:102DA00029FE0446057068460278411C6280201D99
:102DB0005CF7A2F92BE069460D806846FFF772FDCB
:102DC0000A2332463946204659F714FE0121017084
:102DD00069460988418059F728FE002009B0F0BDF6
:102DE0000A233946204659F705FE04466846FFF790
:102DF0005DFD02202070684600886080684640883B
:102E0000A08068468088E0806846C088208120468F
:102E1000E1E7FEB51C46089B0E26084D6F4668C7C5
:102E20001346224660F764FAFEBD0000020D000062
:102E30006E8DFC07B48DFC070B0E0000284CFC07C0
:102E4000F8B50E467A2148430B4D074644192046F3
:102E5000082226771430114600F0F4FAA01C102244
:102E6000314600F0EFFA3FF74AFD6082E85D01214C
:102E70000843E855F8BD0000B48DFC0710B50A788A
:102E8000180A13005CF78CF90805191919131A1A96
:102E900016190C22434C424312190123D3727A2291
:102EA000414C00234243A354FFF726FD06E0FFF701
:102EB00027FD03E0FFF73CFD00E000BE002010BD51
:102EC000FFB5180A1E4681B01B0A00901C467A20E6
:102ED00044430C2534486B430A78324D201807468A
:102EE0005D19921E603713005CF75AF9060412361A
:102EF00019222D3689783976C90706D0691D062230
:102F000071305CF7F9F82879F8750020E87228E04C
:102F10000020E8723876009860F732FB21E0224DFD
:102F200017223A30891C5CF7E7F8285D042107E096
:102F30001D4D10226130891C5CF7DEF8285D1021E0
:102F4000084328550DE0184D1C221E30891C5CF7E3
:102F5000D3F8285D0221F3E73346039A019800F085
:102F60001FFC002005B0F0BD00207047180A7A222F
:102F700050430D4A09788018603001760020704770
:102F8000002070470020704700207047FEB51C46A7
:102F9000089B0726054D6F4668C71346224660F713
:102FA000A7F9FEBD6E8DFC07B48DFC07984CFC079D
:102FB000704710B50A23042209210B4859F71AFD5E
:102FC00004461B202070142060F766FB60701420FC
:102FD00060800420A0800020E080FF2174312181E6
:102FE000204659F722FD10BD1B0D0000F8B50E4616
:102FF00009781846002425460B005CF7D1F809062D
:1030000009120915150C180F1B000B241AA512E044
:1030100007241CA50FE008241CA50CE007241EA50E
:1030200009E00A241EA506E00D2420A503E00624DD
:1030300022A500E000BEA31C0146224859F7DAFC95
:103040000746307838707C70002C04D02246294620
:10305000B81C5CF751F8384659F7E7FC0020F8BD7A
:10306000FEB51C46089B0126174D6F4668C71346E0
:10307000224660F73DF9FEBD4469616C6F672053DD
:10308000656D69004441313435333100123456FFE7
:10309000FE9ABCDE0000000001D2008005000100A5
:1030A000312E302E302E302D4C450000765F362EDE
:1030B000302E31362E31313434000000FFEEDDCCBD
:1030C000BBAA000003140000D04CFC070520000739
:1030D0000089000608D501208007006B000403D496
:1030E00003480078C00701D00020704701207047D6
:1030F00054BAFC0770B51049049C4118052901D346
:10310000012070BD00F00FF80025002807DB0B4AF6
:1031100081005058002803D05550804700E000BE81
:103120002570002070BD04494018052801D240B226
:1031300070470020C0437047F2FBFFFF348EFC074E
:10314000F8B5494D84002959002912D101021E23E6
:10315000042246480A3159F74DFC012606700746FD
:10316000285107224249801C5BF7C6FF00203871B6
:103170007E702859F8BD10B50446FFF7E1FF59F7F6
:1031800054FC0020384AA100505010BD70B5364D97
:1031900084002D1D2959002901D0084670BD010267
:1031A0001E23042231480A3159F724FC04210170FE
:1031B000285170BDFFB581B01F460446FFF7E6FFFA
:1031C000294D0646A4002D1D28591021801C5BF7AF
:1031D000ACFF2859039A801C02995BF78DFF77702A
:1031E000304659F722FC0020285105B0F0BD70B5DB
:1031F0001D4D84000C352959002901D0084670BDA9
:1032000001021E23042219480A3159F7F3FB072152
:10321000017001214170285170BD10B50446FFF7BF
:10322000E6FF59F702FC104A0020A1000C32505072
:1032300010BD70B50546FFF7DAFF04467A20454316
:103240000C4808222D18287F2077688A608229463A
:103250002046143114305BF74FFFA91C1022A01C2C
:103260005BF74AFF70BD0000488EFC07140E00009B
:10327000A04DFC07B48DFC077047704770B50D4634
:103280000446FFF723FF002806D04A482A460421B7
:10329000201859F7EEFE70BDFDF74CFA45480422A0
:1032A00008231146801E59F7A5FB4560047059F7A5
:1032B000BCFB70BDF8B5404C069D06190024002EDD
:1032C00026D0012E0CD03E4F3C4B3A46283A022ED7
:1032D0000AD03949C91E41180A2927D30120F8BD4F
:1032E00000F03EF8287039E00878461E092E0DD807
:1032F0008000001F105898422FD1B0003B58135047
:103300004A6808781146FFF7B9FF26E000BE24E0BE
:103310004A68002A02D02B48824200D900BE0878B1
:1033200024494018042159F7A4FE16E02249891EB9
:103330004018C0B2411E0929E8D88600B218803A68
:10334000D16F002909D0994207D01F4B994204D070
:10335000D467F219803AD46788472C700020F8BDF2
:1033600010B508780C46411E09291FD88200144860
:10337000121F28388258144B9A4205D10022890026
:1033800042502830425012E0890040580B49884290
:103390000DD1042208231146064859F72BFB21784A
:1033A00001706168416059F740FB00E000BE0020F9
:1033B00010BD000003040000FFFBFFFF7B32FC0791
:1033C000888EFC07FCFF3F007932FC070021154A7C
:1033D00006E0834203D11C20414388187047491CF2
:1033E0001C234B43D35CFF2BF3D10020704710B557
:1033F0001823042209210C4859F7FCFA04461B2023
:103400002070FD2060F748F96070FD206080042086
:10341000A0800021E180E1602161A182204659F76E
:1034200004FB10BDA84DFC071B0D00003EB51D465A
:10343000069B002400931346019402942A465FF7EA
:1034400057FF3EBD10B58A4201D35FF789FF10BD1B
:1034500070B53E480022C169D243002901D011460F
:1034600000E00121CB174C0EDB012343CC01C161ED
:1034700037490D684E682C4333430C604B60036A38
:10348000002B01D0144600E00124E317250E1B0297
:103490002B4304620D6824024E682C4333430C60B6
:1034A0004B60436A002B01D0144600E00124E3176F
:1034B000E50D5B022B4344620D6864024E682C43A9
:1034C00033430C604B604369002B00D10122426101
:1034D000D017D30E400118430C6852014B682243A9
:1034E00018430A60486070BD38B50024FF222346A7
:1034F0000132072120460094FDF723FF0325002316
:103500002D022A46082118460094FDF71AFF0023D1
:103510002A46092118460094FDF713FF00231A4696
:10352000052118460094FDF70CFF38BD10B51B208F
:10353000FDF72CFE01F096F8FFF7D6FF05480121B4
:1035400082898A430A43828110BD0000688CFC078F
:10355000608CFC070003005070B5C14CC149E06AA3
:1035600000251430E062884203D3206BE562401CE2
:103570002063BD49206B884200D32563A0681428CE
:1035800007D208210020FDF7A6FEA068401CA0601D
:1035900070BDA0780126002807D10721FDF7F8FEAD
:1035A000002812D0A0780028F2D0206900280ED080
:1035B0007D21E0680901884270D208210020FDF7D2
:1035C0008AFEE068401CE06070BDA670EDE76068B0
:1035D00032281DD2C00711D008210020FDF77BFE44
:1035E0006068312806D207210020FDF7D1FE61690D
:1035F000401860616068401C606070BD0821002058
:10360000FDF784FE60682F28F4D260694000F0E77F
:103610006069A061216A312900D32562616A31297C
:1036200000D36562A16A312900D3A56261780029BF
:1036300004D18E4908602064E063667000282ED0B3
:10364000216C88422BD2E16B884228D2884A091A21
:10365000914224D9E063216B6163226A804B92001E
:1036600044339850606A1A468000C83211500521D0
:103670000020FDF78DFE7F49002801D07E4800E044
:103680007E48A26A92008850206A401C2062606ACC
:10369000401C6062A06A401CA0620AE010E0216C3D
:1036A000884207D3E169491CE161F12902D3206412
:1036B000E063E561656165602069401C206170BD63
:1036C000A570E5602561A56070BD10B5002804D027
:1036D00009210020FDF71AFE10BD09210020FDF789
:1036E000FAFD10BD70B55E4C0646A06B0D46002875
:1036F00007D17D20000100F0D1F91421A06300F072
:10370000ECF92078002808D15D48FEF749F801213E
:103710001420FEF74EF80120207029463046FFF7AE
:103720009AF870BD10B504460020FFF7CEFF204682
:10373000FFF79FF810BD1CB5524A06CA01920091CE
:10374000062269465BF7D8FC1CBD1CB55223042237
:1037500009214D4859F74EF90446FFF740FA014652
:10376000522220465BF7C8FC48A103C90090019192
:103770000620E0720246204669460C305BF7BCFC2E
:10378000204659F752F90221042059F764FB4148B9
:103790000422027000A9401C02315BF7ADFC1CBD85
:1037A000F8B51C463C4BC31828D03C4DEB4225D104
:1037B0000D464B882A490B2B8E6B38D006DC022B2A
:1037C0001DD0052B23D0082B04D128E00E2B36D09A
:1037D000112B3CD008232146314859F70BF92978A1
:1037E0000C2251432F4A89188978017069884180D9
:1037F000002181808021817159F717F9F8BD1346A6
:1038000001462A463046009400F04EF8F8BD1346B3
:1038100001462A463046009400F06DF8F8BD134684
:1038200001462A463046009400F08EF8F8BD134653
:1038300001462A463046009400F0A8F8F8BD134629
:1038400001462A463046009400F0C2F8F8BD1346FF
:1038500001462A463046009400F0E1F8F8BD000029
:103860002C52FC0750C3000000CA9A3B9051FC0741
:10387000B80B00000054FC07ADDE0000EFBE0000F6
:103880005935FC078450FC070D0D00000509F09F19
:10389000998000007A8DFC07EFF1FFFF0D11FFFF0B
:1038A00005FD00006E8DFC0770B51646FD203EF745
:1038B0008AFF6E4D0146288804228000083083B2BA
:1038C0006B4859F797F8044630780C21484369490A
:1038D00040188078207070886080286800268200F8
:1038E000A280A6716449E01D5BF706FC20462E60AD
:1038F00059F79BF870BD70B51546FD203EF763FF84
:1039000001460C2304225A4859F774F804462878D3
:103910000C2148435749401880782070688860809F
:103920000420A0800020A07154480078002802D014
:103930000422534901E053490422E01D5BF7DCFBFC
:10394000204659F772F870BD70B51546FD203EF758
:103950003AFF01460C230422454859F74BF8044628
:1039600028780C214843434904224018807820706D
:10397000688860800420A0800020A0714249E01D7A
:103980005BF7BAFB204659F750F870BD70B5154685
:10399000FD203EF718FF01460C230422344859F756
:1039A00029F8044628780C2148433249042240185B
:1039B00080782070688860800420A0800020A0713A
:1039C0002A49E01D5BF798FB204659F72EF870BD99
:1039D00070B51646FD203EF7F6FE2C4D01462888B0
:1039E00004228000083083B2214859F703F80446C6
:1039F00030780C2148431F49401880782070708827
:103A00006080286800268200A280A6712049E01DFF
:103A10005BF772FB20462E6059F707F870BD70B552
:103A20001646FD203EF7CFFE1A4D01462888042297
:103A30008000083083B20E4858F7DCFF0446307827
:103A40000C2148430B4940188078207070886080B2
:103A5000286800268200A280A6710F49E01D5BF74E
:103A60004BFB20462E6058F7E0FF70BD4C52FC0720
:103A700005FD00006E8DFC077052FC072D52FC07FF
:103A80009051FC07C854FC076C52FC075052FC07CD
:103A90003853FC075452FC070054FC0710B5044689
:103AA000FF20D13000F046FE002815D00E490460FA
:103AB00041600E498160002101731422026141615D
:103AC0000176C1610162416281620122C1620263C9
:103AD000416332228263C16310BD002802D00022FC
:103AE0000273016170470000DF5EF800B80B000050
:103AF000F8B507460120002302460090194603202E
:103B000045F780FC0446022180300170FF4DFE48DD
:103B10002A6843881146FF31F7310B868088488632
:103B2000FB48066A0123DB069E431E430662FF3202
:103B30000020FF32383250829082D0821D200882CD
:103B4000F4484884F448C882F44808830020488236
:103B5000384645F797FF01462868FF30F730C28B9B
:103B6000920992010A43C283ED48416800208847C8
:103B7000002C02D0204645F72EF82046F8BDFFB5B0
:103B80008BB0064616980027022821D00D98018890
:103B90001498814278D37188084640383F2802D86B
:103BA000159852F72BF80C98361D0088149A801936
:103BB0000E995BF7A1FA0C980188149808180C99D3
:103BC00008800D9801881498081A0D9908805CE106
:103BD00000200E9D079069782C78090221433180DE
:103BE000E978AC780902214371808C46403904247D
:103BF0002D1D024603468E46402900D32878614693
:103C000004291FD0052914D0062918D070463F2852
:103C10003DD8159851F7F2FF0006000E04D0C148B8
:103C2000008D0006C00F30D002230120BE4A0027BD
:103C300012E0697800290FD0BC4A17230CE0BC4A77
:103C40000F2309E0522802D0D22802D002E014202B
:103C500000E01520B74A1F23002A1AD0984218D234
:103C6000800010580490002813D000200890059080
:103C700070884038402803D32878052430716D1CA3
:103C8000701D00900498B5E0FEE03027F0E0332787
:103C9000EEE07088042872D10627E9E0522862D04D
:103CA0000CDC4B283FD004DC41286AD0422858D194
:103CB00011E04C2820D0502853D140E0632830D068
:103CC00004DC572818D061284BD19BE06C2864D0C5
:103CD000772846D109E00098297801700098641C83
:103CE000401CA4B26D1C009081E00498401C04901C
:103CF0000178089881427AD10098A41C401C4108A0
:103D00004900881C009068782A78000210430880D7
:103D10000599AD1CA4B2002969D008900020059037
:103D200065E00120FBE71022294600985BF7E4F9E3
:103D3000009810341030A4B21035009057E020469F
:103D400040301499039088420BD8402229460098AD
:103D50005BF7D2F90098403000900398403584B268
:103D600045E0342743E00822294600985BF7C4F970
:103D7000009808340830A4B20835009037E068E0B5
:103D8000FFE70622294600985BF7B6F90098A41DC4
:103D9000801DA4B2AD1D009029E01498001B80B2D4
:103DA00003903088001B001D81B201200790049809
:103DB000401C04900098401C40084000009004986B
:103DC000007857281CD04228CBD100980170090AEE
:103DD000417000982946801C0090039A5BF78CF98B
:103DE00003980399201884B2009840180090049812
:103DF000401C0490007800281ED0002F17D01BE034
:103E00004908E2E71498001B81B200980391401C16
:103E100040084000009001200A460790294600987B
:103E20005BF76AF90399601884B20098DDE70D9991
:103E30000988A14200D331E70D980088A04208D339
:103E400004990978002904D10799002903D1A042D7
:103E500001D034270CE00D99001B08800C980188D4
:103E60000098801B001F08180C99002F08800CD0A8
:103E70007088042809D0062807D04038402804D389
:103E80000E984079707100E0342738460FB0F0BDCD
:103E9000FFB581B01F4616460C46104658F7F0FF96
:103EA00000257F2802D02189062909D03B463246C9
:103EB0002146019852F735FA0546284605B0F0BD6F
:103EC000C00601D50225F8E720780028F5D1300A90
:103ED000A11D3EF7BEFBF0E7F1B598B018983EF78C
:103EE000B6FD0446189805210079134A4006C00F14
:103EF000099068460184618B08460A38904276D260
:103F0000E08A062873D319E030BCFC074CB9FC07E3
:103F1000C0000040108000002941000076710000C0
:103F200058BFFC0748BEFC073803F2074003F207FE
:103F30009C03F207D803F207770C00001922D20184
:103F4000904254D8228BFF23F5339A424FD8521C0B
:103F50009300D2184243521C0A23521059438A42FA
:103F600045DC217F00290CD1617F002909D1A17F87
:103F7000002906D1E17F002903D12021095DC9066E
:103F800035D0274620377978C906C90E491F0C2934
:103F90002DD2A18A81422AD8E17C002927D0421E55
:103FA000082A01D9082000E0401E81421FD8684637
:103FB00042F70EFE00281AD1FE4D06222862214645
:103FC0000BA85BF799F8A8792E46803E00287DD093
:103FD0006079800901280BD00BA8099949F7C7F827
:103FE000010003D03820405C002870D09CE009E13B
:103FF000F06A807A012808D0042806D00BA849F777
:1040000023F9286200284ED054E0686A06220BA9E2
:1040100032305BF795F8002806D00BA849F714F961
:104020002862002802D012E0686AF9E700210BA894
:1040300049F720F92862F16A897A012905D18B07AD
:104040001A6849068A430A431A60002811D0F16AA7
:10405000286A0622253010315BF772F8002808D153
:10406000286AF16A2030C07AC97B884201D1286A67
:104070001EE0D148D1490088C96880B20622504369
:1040800008183EF7E9FC014614A8062202305BF747
:1040900033F813AA00213C203EF7ABFF0121B06D9D
:1040A00044F7D2F9AAE011A90BA849F7E3F828626E
:1040B000002839D001460A9006220FA825315BF767
:1040C0001BF80A9908AA2031C97A01E042E025E0EC
:1040D0000FA848F72FFF002812D0286A2030C07A96
:1040E000002809D16846B649008C47F796FE08AA11
:1040F0000121B34848F71EFF68460BA9008C0AE06F
:1041000008AA012111A848F715FF00280CD0296A38
:104110006846008C323147F796FE05E00A18527D5A
:10412000002A08D010286DDBF06A407A022806D0F9
:10413000032804D00EE0401C1028EFDBF4E76846AB
:10414000008C052806D308AA0BA8099948F7F2FEA7
:10415000002857D000226946204648F794FF0028DF
:1041600050D1F06A407A02280BD0032809D00023EE
:10417000684602880BA8099948F7A6FF002802D0D4
:104180002FE00123F4E7E18A68460181218B418118
:10419000618B81817878062241096846817578783B
:1041A000C106C90E6846417521460E305AF7A4FF74
:1041B000189800794006C10F6846017503882146AA
:1041C00002A8B26D43F7E6FC0146B06502A83EF7CF
:1041D0005EFF0020B065214668461C31008842F72A
:1041E0004AFD45F7C9FD734C2034207A002805D0DC
:1041F0000021092058F787FF00202072002108467F
:1042000058F729FE19B0F0BDF8B56E4C064685008A
:104210000F4660594C21095C24290ED140691022B7
:10422000791D2E305AF768FF6159252040310873F7
:1042300000221146304650F734FE60594C21095C8B
:104240000C291FD140691022791D2E305AF754FFD6
:1042500060595F214069095C09072DD401462E3160
:1042600010221E305AF76CFF00280CD0605909212B
:1042700040300173304651F731FB01460022304691
:1042800050F78EF9F8BD0421684601706A46052191
:10429000304650F72FFB684601786020014368469E
:1042A0000170304651F71AFB014668460278012337
:1042B000304650F78AFAF8BD304651F70FFB012817
:1042C00009D0605907214030017300221146304661
:1042D00050F7E7FDF8BD615900204969C031887188
:1042E00060590421426930461E3250F703FB605981
:1042F00041694031897F002907D01A21403001737C
:104300000021304650F757FEF8BD1B2140300173A5
:10431000304650F7A5FEF8BDF8B52A4C0546860094
:10432000A0594C22125C192A11D140224D30491D4E
:104330005AF7E2FEA059402223494D305AF700FFB8
:10434000002805D020492846203958F764F8F8BDE0
:104350000B21684601706A460521284650F7CAFAC3
:10436000684601786020014368460170284651F78D
:10437000B5FA0146684602780123284650F725FA27
:10438000F8BDFFB581B003980C46060A002558F722
:1043900077FD002827D0132825D0142823D00B48D8
:1043A000B700C0592030407BC00637D5039858F776
:1043B00067FD0DE030BCFC0768B9FC0760BBFC077B
:1043C00050F5F1073CBEFC07FCBDFC0778BBFC07C1
:1043D00015280CD0A0793EF72DFB304643F7C8FBDB
:1043E000032806D015E0A0793EF724FB1FE0022544
:1043F0001DE0A848C0592030407B400704D53D212E
:1044000030463FF715F804E03D22002130463FF7E3
:104410001EF83D21304642F7F3FB08E020461038F5
:104420009D490181468120464BF7DCF8012528464D
:1044300044E5F8B510460D46140A58F721FD010071
:1044400030D09448A200835801271E8BBF023E4300
:104450001E83132926D0142924D0152911D0805861
:104460002D21095C0123CA06002A0CDA0246A0327B
:10447000967D002E07D093753D21204642F7C0FB64
:1044800010E00220F8BD090703D50021A030817596
:10449000F7E7A030837520463FF74AFD29462046BE
:1044A0003FF77EFD0020F8BDFFB581B01546170A25
:1044B000104658F7E5FC002837D0132835D01428CB
:1044C00033D0290A8C00734E152815D0FF202946B9
:1044D000033058F718FE30592D21095CC90603D561
:1044E000A030C07D00280DD03D026D1CA8B258F749
:1044F000C7FC19280BD00EE030590121A030C1753E
:104500000220DBE43D21384642F77AFB0DE0A8B2F9
:10451000012158F7A0FC30590122018B520291432E
:104520000183384602993FF73BFD0020C6E4F0B511
:1045300058498700C959002680314A8C8B8C1B2A28
:1045400000D21B228C8B944200D222468A849A424B
:1045500000D001260B8CCD8C1B2B00D21B23CC8BC7
:104560009C4200D22346CB84AB4200D001260B8E66
:10457000CD8D9C46FF2349339D4201D21C4600E06D
:104580002C460D8DA54200D325460D86654500D0ED
:1045900001264C8EA4468C8D9C4200D21C464B8D2D
:1045A000A34200D21C464C86644500D00126EB088D
:1045B0000B3B9BB29A4200D213468B86522335495D
:1045C0005843364BCA591C688032D28C0419FF34C8
:1045D000D2B201342286C9591A6880318018FF305E
:1045E000498E013041863046F0BD2D485222006888
:1045F00064308188C37E5143284A12688918FF229B
:104600005F32525AFF31120AD21A01310B8CD2B2E8
:10461000DB0B09D00B8C5B045B0C0B84002A03D1F1
:104620008088204A012111547047FFB51746140AAB
:1046300081B0184A0298A100515840780026194DBF
:10464000002907D0295D002905D0002803D1204684
:1046500040F752F92E553A46049B0299019841F7CA
:10466000DCF82BE410B518220F4910485AF744FD26
:104670000D4B0F480C3B0ECB0EC00C480D49A03023
:1046800001600D49416009490C482039086010BD9E
:104690007047000078BBFC07060800004CB9FC0717
:1046A00084BBFC07B08EFC079850FC072000084034
:1046B000C000FC070459F007490C00BF07001000B8
:1046C000064C0125064E05E0E36807CC2B430C3C65
:1046D00098471034B442F7D3FBF71EFD6C51FC072A
:1046E0008C51FC07F8B5040C8BB2264682B25E43AF
:1046F0000D0C1046370C58433604801900217941BF
:1047000016466E43370C36048019794126466E43AF
:104710008919F8BD02E008C8121F08C1002AFAD1A1
:1047200070477047002001E001C1121F002AFBD131
:1047300070470000F0B50B30C108C900144F0026C7
:10474000144A0FE003688B420BD38B4205D95C1AE5
:104750004318456830C3083B00E04368136002C05B
:1047600004E0021D10680028ECD13046002803D177
:104770003868002801D00020F0BD064A06481060C5
:10478000064A121AD208D20044C001203860D7E786
:104790009851FC079451FC07D454FC07D055FC07F2
:1047A000F401C0FFEEEEFFC0D00706406432000007
:1047B000A047FC07F08BFC077D1FFC071B20FC07B4
:1047C00093DEF007F1DEF007F9DEF00749DFF007CE
:1047D00061DFF00777DFF00799DFF00719E3F007F3
:1047E000BDE5F007FDE3F0071DE4F0073DE4F00749
:1047F0007BE4F0078BE4F007F5F9F007B1F7F00779
:10480000CFF7F007EBF7F00705F8F00719F8F00716
:1048100097F8F007AFF8F007DFCDF10767D0F107A1
:10482000DBB9F007CD0DF207B10EF207AD0EF207BE
:10483000A90EF2078D21F0079506FC07211BFC0746
:104840008509FC07B708FC07A108FC07B57EF0073F
:10485000837DF007F13AFC07599EF107634CF1079D
:10486000A527FC07D110F2070528FC07B111F207B4
:104870004112F2077912F207000000008F06FC07D0
:104880009106FC07B9C6F007D592F1077F3BFC07FC
:104890005F9DF1075F9CF107913EFC07EB72F1070A
:1048A000B922F1076B04F1076506FC072BA4F0079A
:1048B000F1D2F0075FBDF007D5BDF00785BEF00768
:1048C0002F45FC07752EF0071581F007DF7FF007F5
:1048D0000937F007000000007F06FC078706FC0789
:1048E0006706FC07F3C3F10775C4F1079306FC07DD
:1048F0007320FC0700000000000000000000000022
:1049000000000000000000000000000000000000A7
:104910000000000000000000000000000000000097
:104920000000000000000000000000000000000087
:104930000000000005000000D05BFC070004000040
:10494000C092FC07AC020000B48EFC07000400001B
:104950007895FC07700500002003000000A60E00FB
:1049600004000000D2000000320000003C00000003
:104970000100000001000000020000000200000031
:10498000040000000300000006000000000000001A
:104990000200000002000000000000000000000013
:1049A00003000000030000000500000005000000F7
:1049B000060000000A0000000A000000C800000015
:1049C000B80B000002000000B80B0000B80B00009C
:1049D00010000000D4010000CC01000070020000B3
:1049E0006A00000004000000010000002000000038
:1049F0000A00000001000000E20400008A0200003A
:104A0000DC050000AF000000B047FC07000000001C
:104A1000284BFC07A04BFC07804DFC070000000062
:104A200001040000000000003F0000000000000042
:104A3000010000018343FC0701001D013344FC0712
:104A400001001E01A944FC07010000022B46FC07DF
:104A500000000000000000002000800000C00000F6
:104A60000000840000002822000000000000040074
:104A700000F7FFFF7F00000030F0FF0F0000000094
:104A80000004000000000000000000000000000022
:104A90000000000000000000FF0F00000100990965
:104AA00003009909070099090F0099091F10990936
:104AB0002F2099095F519909080004900000000017
:104AC00000000000030005D08B0035F010005CF002
:104AD000000010B0000018B000001AB0030051F040
:104AE000000038B000003AB0000064B0000066B0CA
:104AF000000022B0000024B0010005D0000000003A
:104B00000A00008008030490000004F0030006D0AF
:104B1000000000000A00008008030490000004F078
:104B2000030006D000000000784EFC077A4EFC0718
:104B30007C4EFC07CD33FC07130C00004B29F20719
:104B4000150C00007926FC07170C0000572BF20704
:104B5000000C00002328F20706FD00005728F2078A
:104B600003FD00003728F20708FD0000B328F20714
:104B70000EFD00000F29F20705FD0000992BF2073A
:104B8000384BFC070900000014000000ED14F20788
:104B9000FD0000002126F207FF00000000000000D9
:104BA000884BFC07208DFC070200000000004C042D
:104BB0004C04070100010203040506000A00170067
:104BC0000100000000000000983A00010203040503
:104BD000060708090A0B0C0D0E0F2000000000004C
:104BE0000000000000000000FF00000000000000C6
:104BF0000000000014000000B32FFC0700000000BC
:104C0000FF000000000000000000000000000000A5
:104C1000583FF207B28DFC070400010000000000BD
:104C20000000000000000000010D00003D2CFC070A
:104C3000000D0000652CFC07000E0000292DFC076C
:104C4000010E0000BD2CFC07030E0000412DFC07E7
:104C50000A0E0000712DFC070C0E00008531F207D2
:104C60001C0D0000C731F207100D00008530F2075F
:104C70000F0E0000F931F2072C0E00003932F20756
:104C8000120C00005332F207080E00006F32F207D8
:104C90001B0E00009F30F207130E00007D2EFC0754
:104CA000150E0000C12EFC07170E0000692FFC072F
:104CB000190E00006D2FFC07150D0000812FFC0759
:104CC000210D0000852FFC07220D0000892FFC0715
:104CD00002140000ED2FFC07E536FC072537FC0722
:104CE00000000000000000007B28FC07000000001E
:104CF00000000000000000008B28FC0700000000FE
:104D000000000000000000009328FC07A528FC0715
:104D1000AD28FC07BF28FC0700000000ED28FC07B9
:104D20003737FC070000000000000000F928FC07EE
:104D30000129FC0700000000000000003129FC07E9
:104D40000000000000000000000000000000000063
:104D50000000000000000000000000000000000053
:104D600000000000132EFC07B532FC07F530FC07ED
:104D70008D2FFC076130FC072D34FC07F800000084
:104D8000E12BFC078529FC07D84CFC07A137FC0761
:104D9000644DFC076E8DFC07B48DFC079E8DFC07EF
:104DA0000300001000010000FD0000007C4EFC0725
:104DB0001A000000EF33FC070000000000000000B4
:104DC00000000000FF0000000000000000000000E4
:104DD00000000000000000000000000000000000D3
:104DE000595A08E4862A9E8FE911BC7C98434218E0
:104DF000ABEEFFC0EEFFC0EEFFC0EEFFC0EEFFC0A7
:104E00001234567890098765432100123456789001
:104E1000ABCDEFFEDCBAABCDEFFEDCBAABCDEFFE37
:104E2000ADDEFECAFECAFECAFECAFECAFECAFECA7F
:104E3000BEBADDBABEBADDBABEBADDBABEBADDBA36
:104E4000AABBCCDDEEFFFFEEDDCCBBAA012345679C
:104E500020EE8D0CE1F04A0CB325DC536A68862DF8
:104E60009EE7BA08B9A948ABA1AC031C2E0D296C6A
:104E70000028032802290129001A0100704EFC07AE
:104E8000100000000100000010001000E04DFC07C1
:104E9000724EFC070200000001000000000000004C
:104EA00000000000F04DFC071000000001000000B1
:104EB0000480000000000000764EFC0702000000A5
:104EC000010000000F000F001451FC07724EFC0798
:104ED00002000000010000000000000000000000CF
:104EE000104EFC07100000000100000004800000CC
:104EF00000000000764EFC070200000001000000E8
:104F000018001800F850FC07724EFC070200000061
:104F1000010000000000000000000000004EFC073F
:104F200010000000010000000480000000000000EC
:104F3000764EFC0702000000010000001B001B0071
:104F40002451FC07724EFC07020000000100000023
:104F50000000000000000000204EFC0710000000D0
:104F6000010000000480000000000000764EFC07F5
:104F700002000000010000001F001F00B050FC07ED
:104F8000724EFC070200000001000000000000005B
:104F900000000000304EFC0710000000010000007F
:104FA0000480000000000000764EFC0702000000B4
:104FB00001000000190019004051FC07724EFC0767
:104FC00002000000010000000000000000000000DE
:104FD000404EFC07100000000100000004800000AB
:104FE00000000000764EFC070200000001000000F7
:104FF00014001400E050FC07724EFC070200000091
:10500000010000000000000000000000504EFC07FE
:105010001000000008000200010000000000000075
:10502000764EFC0702000000010000000D000D009C
:105030005C51FC07724EFC070200000001000000FA
:105040000000000000000000604EFC07100000009F
:10505000010200000100000000000000744EFC0787
:105060000200000009000200020000000000000031
:10507000764EFC0702000000010000000C000C004E
:10508000D050FC07FECAFECAFECA0000D93EFC078B
:105090000942FC071943FC07F99DF00700000000D6
:1050A000E3A1F107000000004FA4F1070000000099
:1050B0004E756D626572206F66204C6F616420438F
:1050C000656C6C2056616C75657320526561640077
:1050D000427574746F6E2053746174650000000033
:1050E0004D6963726F636869702052464944205667
:1050F000616C7565000000004C6F61642043656C55
:105100006C20426173656C696E652056616C7565D3
:10511000000000004C6F61642043656C6C20566198
:105120006C7565004C6F61642043656C6C204E6546
:1051300077204D6178696D756D2056616C756500DD
:105140004C6F61642043656C6C2054696D657374A9
:10515000616D702056616C7565000000436F6E7460
:10516000726F6C20506F696E740000009C51FC07D8
:10517000A051FC07300A00002447FC07C08BFC0745
:10518000C08BFC07F40200002447FC070E0000005F
:0C519000FFFFFF00000000000000000016
:0400000507FC0111E2
:00000001FF
