:0200000407FCF7
:10000000F073FC07CD01FC07D501FC07ED01FC07EF
:1000100000000000000000000000000000000000E0
:100020000000000000000000000000000502FC07C6
:1000300000000000000000000702FC07171FFC077B
:10004000712EFC07AB2EFC07A526F0072120FC072C
:10005000892DFC070B02FC07091DFC070B02FC079E
:100060000B02FC070B02FC07A316FC07A716FC07F4
:10007000AB16FC07AF16FC07B316FC070B02FC0718
:100080005917FC070B02FC070B02FC070B02FC07CD
:100090000B02FC070B02FC070B02FC070B02FC0720
:0800A000000000008E070E00B5
:0200000407FCF7
:100110000448854605F0E8FE004800477503FC07E3
:10012000C046C046F073FC0722492148086070476A
:1001300010B521480189C908C9000181018A1F4CF5
:10014000C90713D08088002810D11D481B49428858
:1001500020310A8182888A80C2880A80618AFF22CF
:10016000813200889143C001014361821549062014
:1001700008800F2000F00EF8012000F00BF800209E
:1001800000F008F860890421884360810020208005
:1001900062B610BD002809DBC106C90E01208840E7
:1001A00009490860BFF34F8FBFF36F8F704700009E
:1001B0000024F400B469FC07000300500000005064
:1001C000A000FC070034005080E100E00F488047A9
:1001D0000F48004704207146084203D0EFF309801E
:1001E0000C490847EFF308800A4908470420714684
:1001F000084203D0EFF3098007490847EFF308806E
:1002000005490847FEE7FEE7FEE7FEE73101FC0788
:100210001101FC07B502FC071D02FC0710B50446DE
:1002200020484089C00508D51B2001F0A6F81D48CC
:1002300060300188012211430180052212071088D5
:10024000518A0007800FFF2381339943C001014386
:10025000518215492068086060684860A06888601D
:10026000E068C8602069086160694861A0698861C8
:10027000E069C8610C620D48836A4B62C36A8B6295
:10028000036BCB62C36B0B63436B4B63806B886305
:10029000074908200880908AC00601D500BE10BD1D
:1002A000FEE70000200000500090FC0700ED00E099
:1002B0000033005070B5052504462D07288A042117
:1002C00008432882288940210843288124480126A0
:1002D000066024490820088023484089C00507D5C6
:1002E0001B2001F04AF8204860300188314301802A
:1002F0002888698A0007800FFF2281329143C0015C
:100300000143698219492068086160684861A068F2
:100310008861E068C8612069086260694862A06914
:100320008862E069C8620C631148826A4A63C26AE3
:100330008A63026BCA63C26B0C4940310A60426B2C
:100340004A60806B8860A88AC00608D500BE688AAB
:10035000012180088000C9030843688270BDFEE760
:1003600080E200E000330050200000504090FC0785
:1003700000ED00E008B500F0C4F800F009FC052429
:1003800024070825C826A74F0DE0012000F0C2FA77
:1003900000200090042168464DF7D0FB002817D0BC
:1003A00000F07BFB14E02089000611D501208007B6
:1003B000006B00040CD49C480078C00708D15DF79E
:1003C0001CF8002000F0A6FA984800780428DCD039
:1003D00072B602F0FFFD042806D002280BD00328D5
:1003E00009D0012817D017E091480078012801D0E2
:1003F000032000E0022000F04EF8A08AC00601D5DC
:100400008C48058030BFA08AC00601D58948458048
:1004100000F005F800E030BF62B63E80C3E710B5DB
:1004200000F0FFF9844902280CD105200007408A1A
:10043000C005820F814802800A8942808A888280B2
:100440000A88C28048896021C00500280ADB7A48F2
:1004500060300088C00705D0774A2032508A884330
:1004600020305082764882888A43203282807548C4
:10047000C078002807D07448006801898AB24168B2
:1004800003205CF71BF904F075FC70480169042235
:100490009143016110BD38B56946052408702407F1
:1004A000218A054604221143218200F063F8624844
:1004B00041896022C905002905DB5F4B2033598A39
:1004C0009143403159825E498B88934340338B80FE
:1004D000022D01D0032D13D1818849084900818064
:1004E000002000900099491C00911429FADB6189D1
:1004F00089088900491C618161894906FCD56080B1
:1005000038BDF0B55248534905230127524A884265
:1005100001D31C4604E0904201D33C4600E0002495
:100520004E4D4F4E4748AD194E4E8470AD190126C1
:10053000B6034560B54201D8142500E000252540EA
:10054000494C45708C4213D2484B2546EB189442D7
:1005500005D38B4201D211230AE03B4608E09342C7
:1005600001D2142304E08B4201D2102300E00023C7
:100570000370F0BDF8B5022801D0032848D1334AF2
:10058000136904210B4313612D4A203A93895B08B8
:100590005B009381052410222A4E240702287578D7
:1005A000608A36D010436082608A08436082706837
:1005B000C01C870801F0D6FF608A102108436082C2
:1005C0002B487F1E0762EFF31080012181F3108812
:1005D0002188802291432180002800D0012080F3CF
:1005E000108815484089C0050AD501F0A9FF0B20E5
:1005F00000F0C3FE104860300188012211430180E1
:1006000003205CF781F8002806D00120F0702583D4
:10061000F8BD90436082F3E70020F0703078054029
:10062000F5E700000031005054BAFC07048DFC07C8
:10063000B4BAFC070033005020000050A000FC07B3
:1006400020030050C08BFC0758B9FC0700ED00E008
:10065000C08BFC070070FC070040FC071001FC0782
:10066000B8680000000004F8F073FC070C040000F8
:100670000000F4077047704770B50D46002442F73C
:100680003EF92855641CE4B2202CF8D3002070BD3C
:1006900010B55EF71FFD10BD10B55EF724FD10BD4F
:1006A0007047704770470749884200D000BE052157
:1006B0000907488A012280088000D203104348823B
:1006C000704700001111111188480178002902D0EB
:1006D0008021417070478649002008708549C870A4
:1006E000704782490A78002A03D000280CD00220E3
:1006F0000BE0002801D0022000E001207C490870B6
:100700007C490120C87070470120803048707047D4
:10071000F0B594460A46784908269E460E8072B681
:1007200005242407218A0425294321822789802141
:100730008F432781278940210F4327816F490D80EF
:10074000A1886F02B943A1806D4F691F3960A18AEA
:10075000C906FCD4618AFF278137B94361826949A0
:100760000F8A7F087F000F82674F3B692B433B61F5
:10077000278BBF08BF0007432783208B0C27B84374
:10078000920010432083208B302290436246120156
:1007900010432083208A01221043208288899043BD
:1007A0007246104388815748203001880F229202F8
:1007B00011430180018801229203114301805349B2
:1007C00049896022CB0551492031002B4B8A07DA39
:1007D000934320334B82018889088900891C04E0F7
:1007E00013434B820188032319430180018831435D
:1007F00001800188A9430180818891434031818033
:1008000000BF00BF00BF30BFF0BD002805D00128E9
:1008100004D0022804D1012063E755E70020FBE75C
:100820007047334900200978002904D0012903D0FA
:10083000022900D102207047012070472B4881789F
:10084000002904D0491E0906090E817019D1427889
:100850000021002A04D09207920F0270417004E038
:100860000278002A01D0521E02701206120E017088
:1008700007D0012A03D0022A03D1012031E700204A
:10088000FCE7704700B5194A9078401C90701078CA
:10089000002805D1FFF7C5FF431CFFF715FF1370B4
:1008A00000BD12490120C870704710490020C8706F
:1008B00070470E48C07870470020EFF31081012286
:1008C00082F31088052212071289120605D40A48FD
:1008D000028901231A4302811846002900D0012110
:1008E00081F3108870470A4800787047C88BFC076E
:1008F000B4BAFC0754BAFC070033005000020050A1
:1009000080E200E00003005000ED00E02000005015
:10091000048DFC0710B5FE4CA178002921D0FD49BB
:10092000002803D008884007FCD402E0088840076C
:1009300017D4CA88888811040A180020A070F648C5
:1009400000235043800B401C4008E0611F204006FC
:10095000492162F785FDE162A06264214843000CF1
:10096000A06110BDEB49488008880322104308802D
:100970000888042210430880E549012088707047E8
:1009800070B505200007018930229143018101895A
:100990008022114301810189082211430181DF492D
:1009A0000A88520852000A804389182293434381DF
:1009B000048940231C430481048A0425AC43048237
:1009C000848AA407FCD5D24DAA246C61CD88012469
:1009D0000F263602B5430B263602AD19CD80CD88E1
:1009E0002543CD8044899443083444814A88520881
:1009F00052004A80018999430181012080070168E2
:100A0000821591430160C64801683F22520291431A
:100A1000421489180160016802031143016070BD2E
:100A200010B5BB490122D203C969904205D305F034
:100A30006DFA8905800A084310BD4843800A10BD3D
:100A4000EEE710B5B24989694843B64940184900F4
:100A50005EF7D8FA10BDF4E770B500F0FAFB044673
:100A6000FFF7F9FFAA4D288120463C30FFF7F3FF3E
:100A7000AD49001D88602A891018C01DAB4A486026
:100A80001278022A01D111304860FFF7D9FFA84936
:100A9000401880B25CF742FD70BDF0B5A54985B045
:100AA0000120C863C86B0028FCD101208007C06901
:100AB000974C2169884201D2002121611922411AF3
:100AC000D20191422AD320619B4801880391418839
:100AD00002918788C688994903C9009001916846A8
:100AE00001F003F801F02BF90546012020567F287C
:100AF0000CD0281A40B2002801DA404240B208283F
:100B000005DBE068401CE06002F021FC65708A486B
:100B1000029941808780C6800399018005B0F0BDAD
:100B20000020704710B5864900200860FFF794FF49
:100B300001208007016B49004908016310BD08B519
:100B40007349888075498A88520852008A80002239
:100B500000920099491C00911429FADB052109072C
:100B60004B899B089B005B1C4B814B895B06FCD52A
:100B70004880E120C0000092521C00928242FBDBC0
:100B8000488980088000488148890006FCD508BD56
:100B9000F8B56C48C8210180002141806A480824CA
:100BA000448000F067FC694DA98868460180008890
:100BB000C046C04668460088042398433ED00020C3
:100BC000A8806248203001880F22920211430180E0
:100BD000524E2036718A21437182504960310A8811
:100BE0000625AA430A800588CA0115430580758A2F
:100BF00095437582B28A0E25AA43921DB282474A56
:100C00005589534FED050D881DD5BD435701ED198D
:100C10000D800D880F022D052D0DED190D80058815
:100C20002543058005889D4305800D886D086D006E
:100C30000D8001884025A943018020E0288A4008D2
:100C400040002882BDE7BD4303277F02ED190D80D8
:100C50000D880F273F033D430D800588A543058080
:100C600005889D430580B58A03277F02BD43B58271
:100C70000D8801273D430D8051894907FCD5018826
:100C8000032529430180718A6025A943203171829F
:100C90008188A9432031818001201D4E05253070B7
:100CA0002D07E88AC02188438030E882108A000A34
:100CB00000021082108B1C218843083010832548C5
:100CC0000380A8880121C9028843A88048012249DD
:100CD000086001F047FC022001F009FC1F4F386951
:100CE000C0B2AA2875D0012029880C229143800027
:100CF00001432980C046C0460548203000F0D2FAA2
:100D000000F02AF900F0A2FA002864D028E00000E0
:100D1000D08BFC070016005011110100200000507C
:100D20000002004020A10700C869FC07B4BAFC0714
:100D3000E2040000C0000040001500504862FC07BB
:100D4000A8B9FC07003100500033005000030050E8
:100D5000000F00000002005080E200E0C07FF807B2
:100D600000F074FAFFF7EBFE7F207070B86A1E493E
:100D7000086001F0F0FC00F041F803F0FBFF0120F7
:100D800041F7C3FDFFF7FCFD1848006841F762FA20
:100D900017490020C870087101208007016882157A
:100DA0001143016001F072F81E20FFF7DBFD012006
:100DB000FFF7B0FDFFF788FC03F001FA03F056F8E7
:100DC000FFF7B0FE0B49C82008800B484480F8BDEF
:100DD000FFE7032088E73869C0B2AA2801D06E2057
:100DE000C0E78020BEE70000C869FC074CB9FC07DB
:100DF00054BAFC07003100500033005070B535483C
:100E0000334D006834492C6892B0884205D00522E1
:100E10005202324932485EF76FF9324E324930465B
:100E20005EF783F90721314809025EF77EF92C60ED
:100E300005F042F82F492E4808602F48002404800E
:100E400030222E492E485EF757F9294908220839E1
:100E500003C91191109010A92A485EF74DF9244951
:100E60004022283168465EF747F940226946264805
:100E70005EF742F92548274904702548086027494C
:100E80002548086027492648086027490A20087035
:100E9000264827490470322008702649052008603A
:100EA000254A01211160254908602549062008606E
:100EB000244907200860244908200860FF202349AE
:100EC00007300860224908602248066012B070BDF1
:100ED0005CBAFC079CB8FC076587341200B0FC07BD
:100EE000B48EFC0700A0FC07AC14000000B9FC079E
:100EF0005862FC0760BAFC07008CFC077CFCF10719
:100F000000BAFC07DAB9FC07B0BCFC07FDB9FC0766
:100F1000603FF20750B9FC07E05FFC0754B9FC07DB
:100F20005C61FC0758B9FC07B0B9FC07B1B9FC0714
:100F3000D9B9FC075CB9FC0760B9FC0764B9FC07C8
:100F400068B9FC076CB9FC0770B9FC0748B9FC0725
:100F500044B9FC074CB9FC07F0B5C64C89B0002079
:100F60002076607603900120C046C046C2480169E1
:100F7000C248814202D0C01709B0F0BDBE4F04255F
:100F8000403FE819016D0191090F092910D0012294
:100F90000198920790427AD3B94A904277D8B949DA
:100FA0000835884274D1E819C16CB7484180A6E081
:100FB000019A01991204C9B2160E112935D007DC25
:100FC0000B005EF7EDF8087474747474740D1F747C
:100FD00012390B005EF7E4F8063A4B5D6B60656B07
:100FE000207EB200C100A34840380818A24914313D
:100FF00069185EF781F8207E8019C0B22076042837
:1010000054D854E0607EB200C1009A4840380818B5
:1010100099491030143169185EF76EF8607E8019B6
:10102000C0B260760C2841D841E0416D89B202918E
:10103000406D000C01460490029800F00DF9A0806C
:101040000499029800F010F9E08030E0416D89B217
:101050000491406D000C01460290049800F0FCF8E9
:1010600020810299049800F0FFF860811FE0039846
:1010700005A9800040188049B200143169185EF754
:101080003BF803988019039002280FD80FE02BE05B
:1010900010E0406D60820AE0416D7648403801649E
:1010A00005E0406D0004000CA08200D100BEB0003D
:1010B00045194DE073492639884203D1E819C06CBF
:1010C000E0821CE06F49091F884204D1E819C06C16
:1010D0006D49888013E06B49083988420FD1E819BF
:1010E000C06C6949C8800AE007292ED008292FD092
:1010F0000A292DD006292BD0401C07D000BE5E48FF
:10110000103029186148814200D23AE70598A08141
:101110000698050C86B22946304600F09DF8E0811D
:101120002946304600F0A0F82082207EC10700D07A
:1011300000BE40082076607EC10700D000BE400897
:101140006076A18A002905D007E00020C046C0468D
:101150002D1DD4E77D21C900A182042800D000BE46
:10116000002009E7F8B5434C0025403C414F24E0FE
:10117000EE00A059464988421AD1301900904068C3
:10118000800A400414D002F064FD092810D90098A8
:10119000032240681202014609041040890E0843E8
:1011A000A159086000983B494068C001C00D02E0A9
:1011B00030194068A15908606D1C387EA842D7DC00
:1011C000F8BDF8B52B4C0025403C2746403717E0CA
:1011D000E80006193048316981420DD102F039FD2D
:1011E000092809D92D49706908402A490988490404
:1011F00008433169086002E03069716901606D1C63
:10120000787EA842E4DCF8BD1A484038006C70478C
:1012100018490420085E704716490620085E70478A
:1012200014490820085E704712490A20085E70477A
:101230001048808970470F490E20085E70470D499D
:101240001020085E70470B48408A70470948C08AE2
:1012500070470848808A7047081A0104890C4018B2
:101260000F49401800B27047C2008018401A0004AD
:10127000C0147047448CFC07C07EF807A5A5A5A53F
:101280004C42005028000050A000FC07C07FF80727
:101290004C100040D469FC0738300040FFFF01FCCF
:1012A0000100FFFF10B5062201495DF725FF10BDC3
:1012B000D47FF80705200007018830221143018000
:1012C000018803221143018070470520000701882F
:1012D000302291430180018889088900018070478C
:1012E00060490A8B03231B029A43000202430A83CC
:1012F00070475D494A8A8B019A434A825B4A11884A
:101300000823C0079943000F0143118070475649D5
:101310004A8A01235B029A434A82544A1188042371
:10132000C0079943400F0143118070474E498A8A94
:1013300003235B029A43C3085B021A438A828A8AA8
:101340000723DB0240079A43800C02438A82464807
:1013500040300188012211430180434820384189EF
:101360004907FCD570474048818A808A4905890F22
:101370008004400FC900081870473B498A8A03233C
:101380005B029A43C3085B021A438A828A8A072354
:10139000DB0240079A43800C02438A82704732483E
:1013A00010B520384089304CC00510D501F0C5F883
:1013B000002802D00020C04310BD608AC0040BD4B6
:1013C0002A480088000707D40320C04310BD608A64
:1013D00060218843403060822348403001884908BA
:1013E00049000180002010BD10B504461E48203879
:1013F0004089C00502D40120C04310BD01F09DF812
:10140000002806D0FFF7AFFFA04202D90020C0435A
:1014100010BD1548408AC00408D41448008800074D
:1014200004D4082C02D20420C04310BD104801216E
:10143000047041702046FFF779FF002010BD0A4973
:1014400010B520394989C90502D50220C04310BD15
:10145000FFF76CFF0448418A6022914320314182AA
:10146000002010BD203000504000005020030050EC
:10147000D869FC07F0B585B00026974C0296029813
:101480003021484300960019009989004650009980
:10149000491C00910C29F7DB0298401C029001289E
:1014A000EDDB03F0F9FB8C4D0021083D29606960FC
:1014B0000127029600200090029988484900465A68
:1014C00000993846884080B206421DD002983021EB
:1014D00048430099001989004058411C1BD000283E
:1014E0000DD0C117009A5DF74BFE029A12015DF70D
:1014F00047FE2A686B6810431943286069600098AA
:10150000401C00900C28DBDB0298401C0290012854
:10151000D0DB05B0F0BD00BEE3E7F8B516460546E2
:101520000C460A461F46012000215DF729FE2A01CC
:101530005DF726FE684B083B1A685B68104019404F
:10154000084300D100BE68016549401861000818D1
:101550003E43C680F8BD70B505460C460A460120DC
:1015600000215DF70DFE2A015DF70AFE5A4A083A8E
:101570001368526818401140084300D100BE68014A
:10158000574940180121A140818070BD70B50546C2
:101590000C460A46012000215DF7F2FD2A015DF7A5
:1015A000EFFD4D4A083A136852681840114008434D
:1015B00000D100BE68014A4940180121A140418084
:1015C00070BDFFB581B00C4605460A461F46012096
:1015D00000210A9E5DF7D4FD2A015DF7D1FD3E4B47
:1015E000083B1A685B6810401940084300D100BEF0
:1015F000002E2146284602D0FFF7C8FF01E0FFF782
:10160000AAFF3B4621462846039AFFF786FF80E75C
:1016100070B505460C460A46012000215DF7B0FD75
:101620002A015DF7ADFD2C4A083A1368526818404C
:101630001140084300D100BE6801294940180088C4
:101640000121A140084000D0012070BD70B50124E7
:1016500021460A3881400D4688B200F02CF88440BB
:101660002048C189A9430C43C48170BD10B504460C
:101670000A3804280BD82046FFF7E8FF1649A000D7
:10168000303140188038806D002801D0804710BD6F
:10169000002CFCDBE106C90E0120884012490860DD
:1016A00010BD0A20E2E70B20E0E70C20DEE70D206A
:1016B000DCE70E20DAE700280BD0411E4840C003CB
:1016C000010C002002E04908401C80B20029FAD138
:1016D0007047102070470000688CFC07C062FC0750
:1016E000003000500014005080E200E08307FF2229
:1016F000DB0E9A408907090E9940002808DB830811
:101700009F489B001B181868904308431860704757
:101710000007000F083883089A489B001B18D869F7
:1017200090430843D861704797480088C00710D19C
:101730009648018809060CD40088C00509D4012008
:10174000934900040860BFF34F8FBFF36F8F0020F1
:1017500070470020C043704710B5FFF7B6FD052263
:10176000120790888B49000504D5874B1C880520FB
:10177000A04311D09088C30684481FD58388DB0717
:101780001CD003881B0619D5012282800288802381
:101790009A430280486822E0188804221043188087
:1017A00018884008400018800C68002C05D00220E2
:1017B000185E995E0A229A5EA04710BD9288D206F2
:1017C000FBD582889207F8D50288D205F5D502228A
:1017D00082800288FF2301339A43028088680028B0
:1017E000EBD0804710BD70B505242407A5881026CE
:1017F0003543A580002A00D100BE0425634CA58096
:1018000025889B06AD09AD019B0E1D432580A18156
:10181000521ED1B261802188802211432180208113
:1018200002211020FFF762FF102000F09EF870BD2B
:1018300070B505242407A58810263543A580002A05
:1018400000D100BE0825514CA58025889B06AD0916
:10185000AD019B0E1D432580E181521ED1B26180F6
:101860002188FF2201321143218060810221102052
:10187000FFF73CFF102000F078F870BD43480121CD
:10188000818001888022914301804DE73F480221F9
:1018900081800188FF2201329143018044E73D4964
:1018A000486070473B49886070473A490860704714
:1018B000052109078A880123DB021A438A8082797D
:1018C000C17903880A43018919430A4341880A43BD
:1018D00081880A432C490A812F4ACA800A89002339
:1018E0000B810A814089C8807047274801884908D0
:1018F0004900018018E710B5234900200881FFF74F
:10190000F4FF0520000781880122D20291438180E3
:1019100010BD10B51C490A88FF23DB009A43C000A4
:1019200002430A8008880122104308800221102007
:10193000FFF7DCFE102000F018F810BD10B50520F0
:10194000000781880905CA0F81880123DB0219433A
:1019500081800D4C042121808188D202994311435A
:1019600081800E495801086010BD002806DBC106C1
:10197000C90E012088400649803908607047000080
:1019800000E400E000ED00E0000200500001005023
:1019900080E100E0AC8CFC07E703000080E200E09F
:1019A000F748018801221203914301807047F448EF
:1019B00001880122120311430180642000BF401EF0
:1019C000FCD17047EE49CA88D208D2000243CA80CF
:1019D0007047EB49CA8870239A4300010243CA80CA
:1019E0007047F8B5050049D0E54C29782088402299
:1019F00090438901084320806878FFF7EAFF287840
:101A0000002803D168780009FFF7DCFFE878042696
:101A10000128208833D0B04320802879A188000293
:101A2000C9B20143A180E08801274006400F7F0230
:101A3000042826D0FFF7B4FFA8780F2800D900BEED
:101A400061880F225202914340020143618068790C
:101A500061888908890001436180A879012820886C
:101A60003BD0B8432080E879072800D900BE6188C0
:101A7000FF22C1329143800101436180F8BD3043B0
:101A8000CAE7FFF7E0FBBF490028088001D1BE4844
:101A90000880FFF78CFF2088384320802188402071
:101AA0008143014321806088304360806088C004A6
:101AB000C00C608060880F21490288430843608021
:101AC0006088FF21C1318843FF2181310843608054
:101AD0006088800880006080F8BD3843C2E7A8486D
:101AE0000188012211430180704770B50546A44C5E
:101AF000002020802120000160804020A080FFF78E
:101B000097FBA081A189702081434031A1810620EB
:101B100000F06EF92846FFF764FFFFF7E0FF70BDA5
:101B200010B5974801210180212109014180402100
:101B30008180062000F05CF910BD914841880822A0
:101B400011434180142000BF401EFCD170478C48D7
:101B50004188082291434180704710B4884A138815
:101B60000124E402A343C0020343138050883023BE
:101B7000984309010843508010BCDEE783490860A0
:101B80007F48018820221143018081490868FF2293
:101B9000120490430122D205104308607D49402081
:101BA0000860704710B5062000F022F974480188DB
:101BB0002022914301807849402008607349002029
:101BC000086010BD6E4801884908490001807047CF
:101BD0006B480188022211430180704700B5FFF76E
:101BE000F7FF674801888907C90FFBD10121C1812F
:101BF000008A00BDF8B5624C05466088000700D534
:101C000000BE2088009067880020FFF76EFF608884
:101C100004210843608060880F2149020123884322
:101C20005B02184360802088984320806188FF20F1
:101C3000C130814301436180208840218843A9014C
:101C4000084320802089800A80021843208160890F
:101C5000800A800218436081208880210843208008
:101C60002188581081432180FFF7B8FF8009FF3891
:101C7000FF38023886B22088FF21013108432080D6
:101C8000FFF7ACFF8009FF38FF38023880B2012D22
:101C900023D0991B012589B2AD02A94200D300BE11
:101CA0002289920A92020A432281181A80B2A8421B
:101CB00000D300BE6189890A8902014361812188BC
:101CC000FF20013081432180FFF788FF800998427F
:101CD00012D9FF38FF3802380FE07100591A012578
:101CE00089B2AD02A94200D300BE2289920A9202B3
:101CF0000A4322814000D8E7181A082800D300BE02
:101D0000009820806780F8BD1D490120C8811F48C8
:101D10000068002800D00047704710B500F075F843
:101D200017494A88D205520F062A01D9062102E036
:101D30004988C905490F0622511AC84010BD10B57F
:101D4000FFF746FF0E4801888907C90FFBD1012123
:101D5000C181008A0B4A11491288801A7D22D20063
:101D60005043002801DD4A1002E0002801DA0C4A45
:101D700080185DF75DF98011193040B210BD000088
:101D800000150050DA69FC0740760000B88CFC07AB
:101D900004E400E000E100E080E200E0AA050000C9
:101DA0002BFDFFFFF7B50F4632490120C8813248AD
:101DB00000240688314D18E000986100405A7D22C9
:101DC000801BD20050432946002801DD2C4A03E045
:101DD000002802DA2A4A524280185DF729F9801158
:101DE000029919300855641CA4B2BC42E4D3FEBD6C
:101DF000002809DBC106C90E01208840214908607E
:101E0000BFF34F8FBFF36F8F7047F8B50546194882
:101E10004188090705D5FFF70EFA0646FFF70FFAC6
:101E20000FE000888009C007C00F05D0FFF7F0F968
:101E30000646FFF7F1F904E0FFF7F2F90646FFF76F
:101E4000F3F904462804401B0F4D71190E465DF747
:101E5000D9F807462004001B31465DF7E9F8391A26
:101E60006800814201D90020F8BD28468142FBD894
:101E700088B2F8BD00150050DA69FC07AA05000019
:101E8000D502000080E100E0FFFF0000F8B51D482A
:101E90001B4D0068A84231D0FF26C13601213046D3
:101EA0005AF79AFC04461848016818480A0A017053
:101EB00042700A0C8270090EC1700022A35CFF21DF
:101EC000C0319F07891ABF0F615CC75D79405940D7
:101ED000A154521CB242F1D30C481C222146001DD1
:101EE0005FF79EF8002800D000BE20465AF7EFFCAE
:101EF0000648406840F709FD02480560F8BD00004B
:101F0000658734129CB8FC07C869FC07DC69FC07CC
:101F10002049086070471F480068002800D000472B
:101F200070471D4A13695B085B00136153691B0E00
:101F30001B06401E034353619069000E000690612A
:101F40001069022398434900084310611069042175
:101F500088431061106901210843106170470E48E1
:101F60008169090E09068161016949084900016119
:101F7000704700B50021FFF7D4FF07480169C90386
:101F8000FCD5FFF7ECFF00BD034880690002000AA2
:101F900070470000BC8CFC0700E000E08307FF22D4
:101FA000DB0E9A408907090E9940002808DB830858
:101FB000FB489B001B181868904308431860704743
:101FC0000007000F08388308F6489B001B18D869E3
:101FD00090430843D8617047F34930B4884201D038
:101FE000012100E00021F14A4901891808E0838AB3
:101FF000DB07DB0F12D00388541C8D68CC81AB54F7
:10200000CA898B899A42F2D3828852085200828010
:102010008A69002A02D0C88930BC104730BC70479A
:1020200010B5E34800F0C8F910BDEFF310810122AC
:1020300082F31088DC4B052212079842908801D168
:10204000802300E0402318439080002903D0012022
:1020500080F3108870470020FAE7012288210A5295
:10206000EFF3108182F31088CF4B052212079842BC
:10207000908801D1802300E040239843908000297C
:1020800003D0012080F3108870470020FAE710B5D4
:1020900002464032938FDB07DB0FFBD1838980221E
:1020A000934313438381CCB2C0231C520B041B0EF9
:1020B00003800902090E818081899143818110BDCD
:1020C000B94A904201D0012000E00020B74A400107
:1020D000801841617047B44A904201D0012000E06D
:1020E0000020B24A4001801881617047AE4A904298
:1020F00001D0012000E00020AC4A400180180161BD
:102100007047F0B5A84F0D460446B84201D00120F3
:1021100000E00020A549400146182046FFF785FF52
:102120007C20005B28680102090A2046FFF7AFFF08
:10213000E978C8068A06800FD20FC00092004907CE
:102140001043490F0843A081E878C1092046803038
:102150000183E978CA091AD0BC4210D14906CA0FD6
:10216000218A20239943520111432182E9784906AB
:10217000CA0F218A022399435200114321822979EF
:102180000907890F818329798907890F0184287AB2
:102190003077E8683061286970616869B0612879D2
:1021A0000007800F7077F0BD828A5209D207D20FE4
:1021B000FAD00180704730B513460C46054606E05C
:1021C00021782846641CFFF7EFFF5B1E9BB2002BB3
:1021D000F6D130BD70B5744D0446A84201D001203F
:1021E00000E00020714E400186190020F080B2808E
:1021F000002B06D0012B07D13160AC4205D1022063
:1022000004E02046FFF7D7FF70BD032000F0BAF8C6
:10221000A088022188430843A080A08880218843A9
:102220000843A080317FAC4201D1022000E00320AE
:10223000FFF7B4FEAC4201D1022000E0032000F021
:1022400098F870BD818A8909C907C90FFAD070470B
:10225000818AC907C90FFBD00088C0B2704710B58A
:102260000B46044606E02046FFF7F2FF521E1870A8
:1022700092B25B1C002AF6D110BD70B54A4D0446DF
:10228000A84201D0012000E00020484E40018619FC
:102290000020B281F081B160002B05D0012B06D166
:1022A000AC4205D1022004E02046FFF7D8FF70BD04
:1022B000032000F067F8A188012081430143A18039
:1022C000A088042188430843A080317FAC4201D11B
:1022D000022000E00320FFF761FEAC4201D10220A2
:1022E00000E0032000F045F870BD2F49884204D17A
:1022F000028A20239A431A430282884204D1018A27
:102300000222914311430182704718B501E0491E32
:102310001CD3828A9209D207D20FF8D0828A52093E
:10232000D207D20FF3D020490022884203D1038A7A
:102330002024A3430382884203D1018A02239943C4
:10234000018269460A80FF225F3205E0002018BD45
:102350006B461988491C1980694609889142F7D350
:10236000818AC907C90F02D0FFF7BFFFEEE701203E
:1023700018BD002805DBC106C90E012088400D49A3
:102380000860704700280ADBC106C90E012088409A
:10239000084980310860BFF34F8FBFF36F8F7047DC
:1023A00000E400E000ED00E000100050C08CFC07ED
:1023B0000011005000E100E0F8B53F4D3F4E0446EB
:1023C00020890007000F062826D009DC012840D00C
:1023D00002281DD00428F3D12046FFF7FDFDEFE7CA
:1023E000072828D00C28EBD1AC4201D0012000E016
:1023F0000020400187192046FFF7EEFDA18849081B
:102400004900A180B9690029DAD0F8898847D7E75F
:10241000204600F01FF8D3E72046AC4201D001214E
:1024200000E00021490189190A69002AC8D0818A7F
:102430009E2319400BE02046AC4201D0012100E070
:102440000021490189190A69002AB9D00121904760
:10245000B6E7F8BD184930B4884201D0012100E048
:102460000021164A490189180EE003891B069B0FBB
:10247000032B1BD0838A9B06DB0F002B1BD0531C26
:102480000C68CB80A25C0280CA888B889A42ECD30D
:10249000828802239A438280828880239A438280A2
:1024A0004A69002A07D0888830BC10477C231B5A11
:1024B0009B07DB0FE1E7B1E500100050C08CFC0783
:1024C00010B50446FEF74FFFA04202D22046FEF7A9
:1024D00054FFBC480188C90708D101880122114373
:1024E0000180B848603841894907FCD510BD38B52E
:1024F000B54C054620684107490F684601700078D1
:10250000854219D0AF4860384089C0050CD5A81E57
:1025100003005CF745FE05040604040409000B20D3
:1025200000E01320FFF7CCFF2068C008C00028435C
:10253000206060684007FCD538BDA448007870472B
:10254000A24900200870704705210907098809067B
:1025500000D400BE80009E4909589B4801619D49F6
:102560004161704710B5EFF31084012080F31088AB
:10257000944860384089C0050BD594490120087003
:10258000FEF7F1FE944908708E480088C007C00F1E
:1025900048700520000701888022114301808A4885
:1025A0000168C908C900016041684907FCD50320DA
:1025B000FFF7CAFF002C03D0012080F3108810BD64
:1025C0000020FAE770B50546012040030C46814221
:1025D00000D300BE052000070088000600D400BE1E
:1025E0000320FFF784FF7848C56084604168C9070D
:1025F000FCD00420FFF77BFFFF20A100C0040C18D3
:102600002068A84205D10520FFF771FF2068A84285
:1026100001D0002070BD012070BD10B5044601201E
:102620004003844200D300BE052000070088000656
:1026300000D400BE0220FFF75AFFFF21A000C9040A
:102640004018006810BD70B50546052000070088D9
:1026500016460C46000600D400BEA019012149030D
:10266000401E884200D300BE0320FFF740FF002039
:10267000554907E004CDCA608C60641C4A68920723
:10268000FCD5401CB042F5D34868C007FCD070BDF3
:1026900070B5054605200007008816460C46000662
:1026A00000D400BE1846FFF722FF0020FF21C90416
:1026B0000AE0A3005B182A681B689A4201D0002038
:1026C00070BD401C641C2D1DB042F2D3012070BDB2
:1026D00070B5064605200007008814460D46000622
:1026E00000D400BE3046FFF7AEFF04232246294641
:1026F0003046FFF7CDFF00280BD0052322462946A0
:102700003046FFF7C5FF002803D00320FFF7EFFE98
:10271000012070BD70B505460520000700881646EB
:102720000C46000600D400BEA01901214903401E3A
:10273000884200D300BE0220FFF7D9FE0020FF210F
:10274000C90405E0A20052181268401C04C5641CAC
:10275000B042F7D370BD70B5EFF31084012080F361
:102760001088052109070888802210430880164830
:102770000368DB08DB00036043685B07FCD5174B8D
:102780000361144B43610888904308800D4860380A
:102790004089C0050ED50D4900200F4D08702878DE
:1027A000FEF7EBFD6878002804D106480188490847
:1027B00049000180002C03D0012080F3108870BDF7
:1027C0000020FAE7800000500000F407008DFC07AD
:1027D000C462FC07090404A4D869FC070F00990926
:1027E00010B5F74A13885B085B00138013884024F8
:1027F000A343138013880824A343C000034313801A
:102800001089800A80020843108110BD30B5EC4B5E
:102810001C880125640864002C431C801C8840250A
:10282000AC432C431C80012900D101201C882025A9
:10283000AC43400104431C8018881024A0430901C4
:10284000084318809888800A80021043988030BD21
:1028500030B5EFF31081012282F3108805231B07A6
:102860009A882024A24322439A80002900D0012183
:1028700081F31088D24C6034A18949084900A181B4
:10288000A189C907C90FFBD1CD49002220310A8295
:10289000CB4A038893824388138383889383C388B6
:1028A0000B8013880625AB43457A6D002B431380BC
:1028B000827B002A00D100BEC37B002B00D100BE6A
:1028C0008B8B5B095B01521E13438B830A8B53096D
:1028D000C27B5B01521E13430B83817A012917D0FF
:1028E0008189C07AFFF77CFFA189012081430143E0
:1028F000A181A089C007C00FFBD0B2480168802227
:10290000090A090211430160AF491020086030BD77
:102910008289C17A007AFFF779FFE5E7A84860303D
:1029200081894908490081818189C907C90FFBD183
:102930000521090788882022904388807047F0B5D8
:10294000002584462846DC0701D0022423439C4C02
:102950009B4F60340E46491E89B2002E1AD0268A3B
:10296000B607F60FFBD0002904D19D0702D501263A
:10297000760200E0002665462D5C2E433E82904D97
:10298000401C80352D8880B2002DE3D08C49403129
:10299000898A09E0D90707D0218A4907C90FFBD0E6
:1029A000218A8906C90FFBD1002A00D01580F0BD0D
:1029B000F0B50027824D84469E4638463C46804E00
:1029C000603529E0641CA4B28C4205D173469F0790
:1029D00002D501277F0200E00027FF2301331F43B8
:1029E00037828C4209D22F8ABF07FF0FEAD104E059
:1029F000378A63461F54401C80B2884203D22F8B13
:102A0000BF06BF0EF4D16E4F80373F88002F03D032
:102A10006B494031898A01E08842E2D3002A00D024
:102A20001780F0BD694AD062654820300182704746
:102A300010B500210846FFF7F5FF042000F0B2F9B9
:102A400010BD70B50546FFF7F3FF604B002018601E
:102A50009C68002C03D0D9882A46D868A04770BD4E
:102A600070B55A49420606D50020FFF7EAFF5448E0
:102A70004030808A70BD564C80051BD5C888898837
:102A8000884201D1012000E00020FFF7DAFF208812
:102A900070BD0B681B5C401C904204D1087C800711
:102AA00001D5304600E0002003432B82C888401C3B
:102AB000C88002E00126424D7602C8888A8890428A
:102AC00003D2238A9B07DB0FE3D180B292B29042FC
:102AD000DED1087CC00706D039492031088A10228F
:102AE0009043088270BD0120FFF7ABFF70BD70B44A
:102AF0000E46039D5021EC0701D002242543334CA0
:102B00002060A6800020E08008342CC430482038A3
:102B1000808AE80703D02E4800882521090170BC6F
:102B20002C487FE770B50546FFF782FF274B002052
:102B300058611C6A002C03D0598B2A46586AA0475A
:102B400070BDF8B52149430614311D4A2048002BB9
:102B500014DA0020FFF7E6FF1D482038808AF8BD10
:102B60005B1C9BB20B81B34204D10B7D9B0701D54B
:102B70002B4600E000232343138202E001256D026F
:102B80006C100B898E88B3420AD2078ABF07FF0FE9
:102B9000E6D105E0148A0D68EC54CB885B1CCB8031
:102BA000CB888C88A34203D2048BA406A40EF1D157
:102BB00088889AB28242D2D10120FFF7B3FFF8BDD4
:102BC0000013005004E400E000E100E0F069FC07BD
:102BD00060130050612AFC0770B4774C039E0D46C9
:102BE0006061258300206083A083542120344CC47D
:102BF0007248808A70BC724814E730B56F4C024648
:102C00006E4D00202034403D07E0238B9B069B0E39
:102C100003D02B8A1354401C80B28842F5D330BDB8
:102C2000F0B5664E654F0024644B8446403E403705
:102C3000204620330EE01C8AA407E40FFBD0644634
:102C4000245C401C80B234823C88002C02D05B495A
:102C5000898A0CE00D46491E89B2002DEBD1198AF4
:102C60004907C90FFBD0198A4906C90FFBD1002AB1
:102C700000D01480F0BD70B54F4C504D0646143452
:102C800080072035002804DA0020FFF74BFF4B486F
:102C900000894A4A403A288B8006800E0AD0E08894
:102CA000A188884206D2118A23681954E088401C02
:102CB000E080F0E7E088A188884201D0B00503D524
:102CC0000120FFF72FFF288870BD30B43A4C3D4DEE
:102CD000606121830020608363622946226230BCE8
:102CE00039489FE6F8B50546334C344E400603D5C7
:102CF0000020FFF7A6FEB08AA80703D50020FFF743
:102D0000A0FE3089314FA8050AD5E088A188884205
:102D100001D1012000E00020FFF793FE38884EE744
:102D200028060AD5E088A188884201D1012000E068
:102D30000020FFF786FE308B41E7A806EFD5E0883C
:102D4000A18888420BD2398A8907C90F07D0411C54
:102D50002268E1801949105C4039088202E00020B5
:102D6000FFF76FFE308A2AE730B4134C154D206010
:102D7000E035A1800020E0801048E360A260808AF6
:102D8000294630BC12484DE60C4810B520388089E1
:102D90000949C96A002901D0884710BD042000F004
:102DA00001F810BD002805DBC106C90E01208840CE
:102DB0000849086070470000F069FC0740130050A4
:102DC000432BFC0706020000772CFC076013005021
:102DD000E52CFC0780E200E0F8B50125AD07AC6BFF
:102DE0002046FDF72DFE6949694F4A688618002084
:102DF0004860394630465CF705F9664948603A460E
:102E00005043301A00D0381A80B20860286B08216D
:102E100088430843286360480460604800680028CD
:102E200002D0A04200D200BEF8BD10B5FEF74DFAA8
:102E3000052000074189890703D041898908890055
:102E400041810189802211430181018A0422914339
:102E50000182818A8907FCD500F0B4F8012080073F
:102E60000169490700D500BE01694907FCD510BDBD
:102E700010B5FEF71FFA4A4801894907FCD4FEF74E
:102E800024FA484805210088090748804648474CED
:102E90000088801E608007202080FEF70BFA2088C3
:102EA0004007FCD4FFF7C1FF10BDF8B540480168EA
:102EB000C90703D001680222114301600168490279
:102EC00004D50168012292051143016001272F4EAC
:102ED000BD072C69002C57D0200606D58020A8619C
:102EE0004AF7D5FC1E20FDF73DFDA00703D50220C3
:102EF000A86146F7CAFB20070AD50820A86102F09E
:102F000088FF002046F77AFB0420307000F098FE1E
:102F1000E00505D5FF200130A861012046F76EFBD2
:102F2000A00504D501204002A8614AF719FD6006FA
:102F300003D54020A86146F75CFBE00603D51020CE
:102F4000A86144F719FF60070FD50420A861144851
:102F500001894908490001815AF7B6FA3FF770FB29
:102F60001E20FDF7FFFC00203070E00706D0012096
:102F7000A8615AF7C5FA4AF78AFC3770A006A8D5A7
:102F80002020A86100BEA4E7F8BD0000048DFC0766
:102F90007102000040000040148DFC070C8DFC07FE
:102FA00000330050D48BFC07D88BFC070016005070
:102FB0000002004010B53FF788F96748806867490C
:102FC000486010BD10B53FF7ACF9644862494068ED
:102FD000886010BDF8B5002500F0B9F80027009012
:102FE000FDF767FC01465E4E0020002902D13179D1
:102FF000022900D100905B490989C9070DD159F711
:10300000C8FA002809D0F0780125002805D005204D
:103010000007808AC00701D0042596E03088002888
:103020007DD1FDF746FC002806D14F48806A002874
:1030300002D000F08CF80090FDF70EFDB1786846E4
:103040005AF79FF800286AD00124A4072069400697
:103050007BD44348817868464AF770FD002874D0D5
:103060000120FEF73DF90099002906D0206AFF38BB
:103070003938DA2801D8491E00913C4802883C487A
:10308000016850183B4A1060E26B920A92020A43B0
:10309000E263E16B384A1140384A1668B2021143C4
:1030A000E163E16BC902C90A40050143E163344AA7
:1030B000009804250021904200D300BE314B0CCB78
:1030C0005BF7CAFF0903000D0843244A401E711C28
:1030D0001060884200D1166021480079002801D094
:1030E000012100E00021106846F73EFC2648C06A36
:1030F0008047FDF715FD002802D0FEF7DBF8012719
:10310000154E206B0004C00FFBD03068C005FCD505
:1031100030688024A0433060002F03D000E014E02A
:10312000FEF7D3F80F494889462804D24622174BA8
:10313000101A18604A81FFF73DFF30680006FCD581
:10314000052000070189A14301812846F8BD1048E8
:103150000068806A70470000000200400C8DFC0788
:1031600054BAFC070033005074BEFC07D88BFC0730
:10317000D069FC07206AFC07FF03E0FFCC69FC076D
:1031800040420F00F88BFC0758BFFC07088DFC0776
:1031900058B9FC07002070477047704710B52828C1
:1031A00001D2282002E0E62800D9E620FF21F331F1
:1031B00048437D21C9005BF725FF8130C0B210BDB7
:1031C0007047704710B5022902D0012900D000BE17
:1031D000002802D0FF2802D000BE022902D000F051
:1031E00038FD10BD0C2010BD01218907086B072296
:1031F000104308638C4801680213914301607047D3
:1032000010B50220FEF76CF887480168020391436D
:103210000160864800214163416B1F2212049143E3
:1032200042138918416301060868F0229043E03098
:10323000086010BD10B58AB07D4941627D49816248
:103240007D494161002430210C547C49C1627C4994
:1032500001607C4901627C4941607C49C16100F0A8
:1032600087FC7248416B1F22120491434213891854
:1032700041636D480168C21291430160684604557C
:10328000641CE4B2282CFAD3014671482822006855
:1032900040305BF731FF092000F0D8FC00F0DCFC87
:1032A000002802D0012000F0D1FC00F0B6FCFDF7B0
:1032B00059FFFDF786FF00F0D5F800F058F8FFF74A
:1032C0009FFF00F054FC00F083F800F0B9FC0AB056
:1032D00010BD10B55548416B1F2212049143421393
:1032E0008918416300060168C908C900016005200A
:1032F0000007018908221143018100F0ADFC00287C
:1033000002D0012000F0A2FC00F087FCFDF72AFFAC
:10331000FDF757FF00F0A6F800F029F8FFF770FF5F
:1033200000F035F800F08CFC10BD10B5044670229A
:10333000484949485BF7E0FE47484830011B46488A
:103340001038018344495C31091B418310BD10B51D
:1033500000F063FCFDF735FF00F084F800F007F89B
:1033600000F005FC00F023F800F06AFC10BD2F4BC4
:1033700010B540331868394C0102090EC2B20A3147
:1033800009040A32204011430143196010BD344A38
:10339000118B3148103083691B0C1B040B43836174
:1033A000518BC269120C12040A43C26170472C4A45
:1033B000203A118B28481030C3681B0C1B040B43A8
:1033C000C360518B0269120C12040A4302617047F8
:1033D00010B5FFF7ECFFFFF7DAFF21482038018A2C
:1033E0001D4810308268120C12040A4382601C4A85
:1033F00040329188036A1B0C1B040B430362D18883
:10340000426A120C12040A43426215494A88836ACE
:103410001B0C1B04134383628988C26A120C1204BA
:103420000A43C26210BD000000020040400000409C
:103430009531FC079931FC07C531FC07E931FC07E0
:103440009B31FC07C131FC07C331FC079D31FC07F0
:103450004CB9FC07E062FC0770A0FC0700FF00FF0E
:1034600020300040F0B5FD48406B7F2109028843C1
:103470000B2109024018F9494863086AF84980B2EB
:103480004018F6490862886BF64901220840520349
:10349000F24980188863F1484030016903231B0218
:1034A00019430161818B102421438183EB48203033
:1034B0008188012421438180EC49EB480860EC4C71
:1034C00020883F21090188432F21090140182080CD
:1034D000E74820388169E74D490D4905491981615F
:1034E000C169E54D294009256D024919C16141684D
:1034F000E24D2940E24D491941608168E14D294082
:10350000E14D49198160C168E04D2940E04D4919FC
:10351000C1600169DF4D2940DF4D49190161DF4973
:10352000C514097809064919C1256D012943DC4DE7
:1035300029600525DB49AD020D816D1D8D81D949BD
:1035400020310D892D0A2D0255350D818D25AD00B7
:103550000D82D54D8D82D54D0D83D34D0E3D8D837E
:10356000D249D04DC91D40352980D149A181C16BB7
:10357000D04C2140D04C0919C163FF20CF4C6C3096
:103580002080CE482030068B1F2149010B258E4319
:10359000AD0176190683C9484030868809278E43D5
:1035A000BF01F6198680068915278E437F01F6191B
:1035B000068186898E4371198181FF208D30A0801C
:1035C000BE4880300189E024A14319430181818BE9
:1035D0004909490119318183B1482030818B5B0150
:1035E000994389188183AE4880300168C908C900B1
:1035F000C91C0160AA49B24840314862F0BDF0B52B
:10360000AE4987B089680020AC4E059140363169DB
:10361000049171690391964920398A6AA04B0292FC
:103620001A6A0192A54A8032526900929C4A8032FD
:10363000946AA6461C68A446884C2568976A0124AB
:10364000274397629C710022326172619D4E8E62A7
:103650008E6A02273E438E628E6ACF13BE438E620D
:103660008E6A0F143E438E628E6A03273F02BE436A
:10367000FF36FF3602368E62904980314A615A62C7
:1036800006920699491C06911029FADB19461B6A15
:103690009B0717D40B6A23430B620692069B5B1CA5
:1036A0000693FF2BFADD0B6ADB070BD001231B030C
:1036B0000692069C641C06949C42FADB0B6ADB07AC
:1036C00000D101204A627D4B059A9A607B4A049B97
:1036D00040321361039B5361019A0A62774B009A4F
:1036E00080335A616E4B724680339A62604B029A05
:1036F000203B9A6262460A6058490D6007B0F0BDEF
:10370000674908B500208031C8620090401C0090D5
:10371000FF28FBDD6C4800786849C006820D403107
:10372000C8681F235B0198431043C86008BD674801
:103730004A4900684031086048488169890989011F
:103740001C3181618169C21391438161016B3F2208
:10375000120691430722920689180163016B3F22EA
:10376000920191430F22D20189180163016B8909EB
:1037700089011E31016370473848C1694908490011
:10378000C161704746490320487170474B4808B5EE
:103790004030C1684C4A8905C90E1170C1681F22AA
:1037A00052019143C1603E49012088713C488030FC
:1037B000C16A03221143C16200200090401C0090A6
:1037C000FF28FBDD08BD08B53549022088710020BF
:1037D0000090401C00900B28FBDB08BD1F484121D6
:1037E0000177C16903225202914302158918C16110
:1037F00070471A49432008777047184840300168DD
:10380000324A11600021C943016014488169890965
:10381000890181618169C21391438161C169032278
:10382000520291430315C918C161C16970239943BC
:103830004031C161016B3F231B0699430B235B069B
:10384000C9180163016B3F239B01994389180163E8
:10385000016B89098901183101637047003000400C
:1038600000008888FF00FEFF59055C0780000040CB
:103870002020004009581A00FEE1FFFFE0E00000B0
:103880000809294900000303696A686C031FFFFFE8
:1038900070600000E0E0E0E00B0A0A08188DFC0709
:1038A0000010004020130040340A000051080000BE
:1038B000070F00002F64E0FE101A060100120040FE
:1038C0005001500194A4F800B869FC07246AFC0771
:1038D000F8B5ED4803274771EC4C6068C009C0019A
:1038E00014306060FFF789FF43202077FFF76BFFFC
:1038F000FFF74CFF0025261500950098401C00900E
:10390000B042FADBE04903204871E048803080682B
:10391000C705FF0DFFF7F4FE00950098401C0090CE
:103920001028FADBA0694002400AF9050843A061AB
:10393000A069D7490840B9010843A061FFF74EFFCD
:10394000FFF741FFFFF722FF00950098401C009011
:10395000B042FADBCC4903204871CC488030806803
:10396000C705FF0DFFF7CCFE00950098401C0090A6
:103970001028FADBA0694002400AF9050843A0615B
:10398000A069C3490840B9010843A061FFF726FFB9
:10399000FFF719FFFFF7FAFE00950098401C009012
:1039A000B042FADBB84903204871B84880308068DB
:1039B000C605A069F60D4002400AF1050843A06162
:1039C000A069B3490840B1010843A061FFF7D4FEE4
:1039D000FFF7ADFEFFF794FE00950098401C0090A5
:1039E0001028FADBAB4846810120F8BDF8B5A6499E
:1039F00003204871A5484168C909C90114314160D3
:103A0000FFF7C4FE00250120800200950099491CA3
:103A100000918142FADB9D48803001680A07016805
:103A200000684906490FC004984C830E4034606911
:103A30001E26B043D20E1043606160690722520215
:103A4000904349020843606160693F21490488430B
:103A5000590408436061606903210002000A4907B4
:103A6000401860612169022081432161226901219E
:103A70000A43226162690A4362616169C2011143BA
:103A800061616169C203114361616169820511432A
:103A90006161616840221143616061681F221143C6
:103AA0006160216901432161C1020095009A521CA5
:103AB00000928A42FADBE26B764E5202520AB282DE
:103AC000236983432361636905271B021B0A7F0760
:103AD000DB19636123690343236100950098401C4F
:103AE00000908842FADBE06B4002400AF082111A33
:103AF00069485BF787FA3083C105C90FC8404006A3
:103B0000400EC9010F18206940084000206160691B
:103B10004008400060616169FF20013081436161BC
:103B200061690002814361616169C0018143616132
:103B30006168402081436160FF1CFFF7E1FD009553
:103B40000098401C00901028FADBF9B271704F48C1
:103B50000269120A12020A4302610169FF2212027B
:103B600091433A06120C114301610120F8BDAFE602
:103B700073E672E64449082008716EE64348416ADC
:103B800002221143416268E64049002008753F481F
:103B9000403001683F4A121F11600021C943016093
:103BA0005BE63C483949001F0068403108603749EE
:103BB0000A20087551E635484169012252079143B0
:103BC0004161416952109143416146E62E4880307F
:103BD000816B082211438163816B802211438163D1
:103BE000816BC21411438163816B82051143816330
:103BF000816B420591438163816B020511438163AF
:103C0000816B521091438163816B52101143816328
:103C1000816B5210914381631FE608B51A48082151
:103C2000017100210091009A521C0092102AFADBC7
:103C30000091491C00911029FBDB0321417108BD53
:103C40001148022181710021818006E61349087024
:103C500003E61248007800E610484078FDE50F487A
:103C60004178002906D101214170074909680901FD
:103C7000090F4160F1E509484178002903D000218E
:103C8000417001790170E8E500100040003000400B
:103C90003F80FFFF286AFC0740E00000188DFC070A
:103CA000FFB585B00C46FD205DF7A2FA0390002712
:103CB0006846077008986946060A20885EF7C4FBC4
:103CC00005466088002800D000BE002D6AD1FD2086
:103CD00000F094FF694609781423594342680B1D8C
:103CE000D35C022B21D15158354A098891421CD10D
:103CF0000197029720885EF742FB002800D100BEA2
:103D000001AB002204A94DF72FF904982146800544
:103D1000C00F5EF71FFB05062D0E43D168460178E4
:103D2000E28830465EF7F1FC21E000280BD0806984
:103D30008446002807D06846A2886188A31D0078C1
:103D40006546A847054601970297208801A94CF7C8
:103D500086FE002D26D101980089C00B07D162880C
:103D6000A1882088A31D4CF7E4FE051E1AD1314618
:103D700003985DF75BFA0146A088079A801D83B21D
:103D8000104858F737FE0746A288A11D801D5BF733
:103D9000B3F9684600787880A088B8803E703846CD
:103DA00058F743FE04230848079A089958F722FE5B
:103DB00021880180857058F738FE002009B0F0BDD9
:103DC000022900000AFD0000160C0000F8B50025CD
:103DD000244CFF272E46002813D128461030266198
:103DE000A082E7826660A660E681A681C0B2214615
:103DF000266058F7FEFF6D1CEDB21834022DECD38F
:103E0000F8BDE08A5DF77AFA002802D041682046C2
:103E10008847E7826660A660E681207D59F743F80F
:103E20006D1CEDB21834022DEBD3F8BDF1B50D4D7C
:103E30000D4F00242E46E88AFD2803D11820604348
:103E400080194760E88A5DF759FA002803D0826834
:103E5000284600999047641CE4B21835022CEAD336
:103E6000F8BD0000208DFC07A863FC0710B500F02A
:103E7000CDFB5FF73DFC0020FCF7C7FC10BD0C211B
:103E80003B4A10B5414389188978FF2902D000F0D8
:103E9000DFF810BD01F079F810BD10B501F075F82C
:103EA00010BD10B55FF70CFB002801D001F06DF8D4
:103EB00010BD10B501F069F810BD10B52D490A7894
:103EC0000270401C491C5BF717F910BD2949498C49
:103ED00001807047082101801021418000218180EC
:103EE0007D21C180704770B50C4601780025214BBB
:103EF000002904D0012909D04820207070BD8278A3
:103F0000011D1A70581C5BF7F7F801E040885884CF
:103F1000257070BD0120087000204880888070479F
:103F200010B500F0BAFC10BD1FB54978002908D0C3
:103F3000114A012901D002290DD101230092042246
:103F400006E00EA21ECA03946C460EC40123102282
:103F5000694600F0C1FC1FBD10B50446497800F069
:103F60008AFA204600F0F7FC204600F0E8FC10BD7D
:103F70006E8DFC077A8DFC0740E201000001020310
:103F80000405060708090A0B0C0D0E0F0021A34AB1
:103F900005E0834201D101207047491CC9B20C23BE
:103FA0004B43D35CFF2BF4D10020704770B59B4985
:103FB0009B4C0E460C369B4D0DE052185268002A61
:103FC00007D0C2B20C235A4351184968401C607094
:103FD0002DE0401C607060780C2242438B5CFF2B0C
:103FE000EBD10AE089194968002903D0FFF7CEFF19
:103FF000002809D02078401C207021780C204143F3
:10400000705CFF28EED117E020780C21414389191C
:104010004968401C20700AE04919C968002909D084
:10402000C1B21C2251434919C968401CA07088477D
:10403000002070BD401CA070A0781C2141436A5C28
:10404000FF2AE9D10020A07060702070012070BDAF
:10405000F8B505460024714E0AE0801981680029F0
:1040600004D0641CE4B22846884701E0641CE4B232
:1040700020460C214843315CFF29EED1674E0024D5
:104080000C3609E08F19B968002903D0FFF77EFFCD
:10409000002809D0641CE4B20C216143705CFF2845
:1040A000F0D100245F4E10E0641CB968E4B22846E9
:1040B0008847F1E780190169002904D0641CE4B243
:1040C0002846884701E0641CE4B220461C2148438E
:1040D000315CFF29EED1F8BD10B5514CE0680028E5
:1040E00015D15223042209214F4858F783FC0D2192
:1040F000E0600170002141704C4A8280C28007223A
:104100000272817201224272C1722030C172E06873
:1041100010BDFEB5424EB06800284ED142482C2357
:1041200004220921093858F765FC032101700A218E
:10413000B060417017210184012181760025044679
:10414000458010210A305AF7F0FF39A103C9334FD7
:10415000019100902C3F06223749781D5AF7F0FF55
:10416000002807D005226946781D5AF7E9FF002884
:1041700008D008E02A48183000F0FDFE2849062241
:10418000183103E000BE00BE0622791D201D5AF73B
:10419000B3FF2020E076A583E58328486584C08F9F
:1041A0000021002800D90846E0842448002140303E
:1041B0000088002800D908462085B068FEBD3EB5BD
:1041C00000251649009501950C2234316846029568
:1041D0005AF792FF12480C221E3069465AF78CFF9C
:1041E0000F4C1F222A34227015A1601C5AF784FF3D
:1041F0000A4965842431042058F7FBFD002104207E
:1042000058F729FE3EBD67E710B5FFF782FF58F764
:104210000CFC03490020886010BD00001064FC07FE
:10422000508DFC07D065FC070D0D00004C0400000C
:10423000FFFFFFFFFF000000DCF1F107F0BBFC0710
:10424000F09F98BA20547261634B61742D424C45C3
:104250002D4C6F61645F43656C6C5F44656D6F00EE
:1042600010B5104658F70CFE002802D000BE002002
:1042700010BD012304220921754858F7BBFB012119
:10428000017058F7D2FBF2E710B50C780F2C17D05D
:104290000CDC0C2C14D004DC012C13D0032C0DD11D
:1042A00016E00D2C0CD00E2C08D109E0112C07D0F3
:1042B000122C05D0132C03D0172C01D000F090FE47
:1042C000002010BD4878002805D1FFF79DFFF7E7D3
:1042D0004878002801D000BEF2E7FFF7E2FDEFE7E3
:1042E000F8B51C4610460E4658F7CAFD022802D003
:1042F00000BE0020F8BD240A00D000BE0C202746D6
:10430000474354483D18AC70FF2C1AD00121E97086
:104310000321042058F79FFD4E483188C153707A1D
:1043200028713146681D06220A315AF7E5FE7A20C7
:104330004949604340186030017E012220465FF702
:10434000D3F83146204600F0EDFDD2E770B50D7888
:104350004C78092D04D0002C00D000BE00F040FEA7
:10436000002070BD70B51D4610460C4658F788FDFC
:104370002A0A032802D000BE002070BD0C20424350
:104380003448FF21101881700021C170204600F0D0
:10439000E9FDF1E7F0B508780025304C89B01F46FB
:1043A0001646002804D0012817D0022827D129E07A
:1043B0006846FFF782FD6846037832463946204654
:1043C0000A3358F717FB0446057068460278411C0B
:1043D0006280201D5AF790FE2BE069460D806846EA
:1043E000FFF774FD0A2332463946204658F702FB90
:1043F0000121017069460988418058F716FB0020A9
:1044000009B0F0BD0A233946204658F7F3FA0446AE
:104410006846FFF75FFD02202070684600886080D4
:1044200068464088A08068468088E0806846C088EA
:1044300020812046E1E7FEB51C46089B0E26084D6C
:104440006F4668C7134622465EF752FFFEBD000066
:10445000020D00006E8DFC07B48DFC070B0E0000F2
:104460005064FC0710B53EF74AFA18495AF7CAFDDE
:104470001748081810BDF8B50E467A214843154D67
:10448000074644192046082226771430114600F0CA
:10449000FDFBA01C1022314600F0F8FB3EF72FFA7E
:1044A0006082E85D01210843E855F8BD70B57A21C6
:1044B0004843084C0546001910221146513000F0BF
:1044C000E5FB605D08210843605570BDA0BB0D0091
:1044D000A0860100B48DFC0710B50A78180A1300F5
:1044E0005AF75EFE0805191919131A1A16190C2223
:1044F000434C424312190123D3727A22414C0023C8
:104500004243A354FFF70CFD06E0FFF70DFD03E067
:10451000FFF722FD00E000BE002010BDFFB5180A25
:104520001E4681B01B0A00901C467A2044430C258D
:1045300034486B430A78324D201807465D19921EA5
:10454000603713005AF72CFE0604123619222D3656
:1045500089783976C90706D0691D062271305AF765
:10456000CBFD2879F8750020E87228E00020E87279
:10457000387600985FF704F821E0224D17223A3090
:10458000891C5AF7B9FD285D042107E01D4D102252
:104590006130891C5AF7B0FD285D10210843285569
:1045A0000DE0184D1C221E30891C5AF7A5FD285D10
:1045B0000221F3E73346039A019800F011FD002031
:1045C00005B0F0BD00207047180A7A2250430D4A0A
:1045D000097880186030017600207047002070470D
:1045E0000020704700207047FEB51C46089B072638
:1045F000054D6F4668C7134622465EF779FEFEBD3D
:104600006E8DFC07B48DFC07C064FC07704710B5C5
:104610000A23042209210B4858F7ECF904461B2011
:10462000207014205FF738F8607014206080042038
:10463000A0800020E080FF2174312181204658F7BE
:10464000F4F910BD1B0D0000F8B50E4609781846A8
:10465000002425460B005AF7A3FD09060912091587
:10466000150C180F1B000B241AA512E007241CA51B
:104670000FE008241CA50CE007241EA509E00A246D
:104680001EA506E00D2420A503E0062422A500E0D7
:1046900000BEA31C0146224858F7ACF90746307803
:1046A00038707C70002C04D022462946B81C5AF77A
:1046B00023FD384658F7B9F90020F8BDFEB51C4671
:1046C000089B0126174D6F4668C7134622465EF7C2
:1046D0000FFEFEBD4469616C6F672053656D690014
:1046E0004441313435333100123456FFFE9ABCDE7A
:1046F0000000000001D2008005000100312E302EA4
:10470000302E302D4C450000765F362E302E31365F
:104710002E31313434000000FFEEDDCCBBAA0000A6
:1047200003140000F864FC07052000070089000658
:1047300008D501208007006B000403D409480078E5
:10474000C00701D0002070470120704710B5044613
:10475000FFF7EAFF002801D1FCF7AEF8204658F732
:1047600064F910BD54BAFC0710B5044600F06AF8AD
:10477000002805DB0021384A80001150204610BD7A
:1047800000BE002010BD344A00218B00D358002BFE
:1047900004D0491C0529F8DB304870478B00D05005
:1047A0002F4808180004000CF6D0704770B50C466E
:1047B000054600F047F8002804DB274980000C502C
:1047C000284670BD00BE254870BD10B5224C01467C
:1047D000241F2088002802D0FFF7E8FF10BD0846FC
:1047E000FFF7D1FF208010BD10B51B4C241F20887F
:1047F000FFF7BAFF0020208010BD174810B5001F3A
:104800000088002803D00022042158F724F910BDA5
:1048100070B51349049C49424118052901D3012070
:1048200070BD00F00FF80025002807DB0A4A810060
:104830005058002803D05550804700E000BE257036
:10484000002070BD064949424018052801D240B2F7
:1048500070470020C0437047348EFC07FFFF000004
:104860000E040000F8B5494D84002959002912D1E1
:1048700001021E23042246480A3158F7BBF80126DC
:1048800006700746285107224249801C5AF734FC1B
:10489000002038717E702859F8BD10B50446FFF726
:1048A000E1FF58F7C2F80020384AA100505010BD6F
:1048B00070B5364D84002D1D2959002901D00846B8
:1048C00070BD01021E23042231480A3158F792F8C4
:1048D00004210170285170BDFFB581B01F46044608
:1048E000FFF7E6FF294D0646A4002D1D285910218B
:1048F000801C5AF71AFC2859039A801C02995AF70F
:10490000FBFB7770304658F790F80020285105B02F
:10491000F0BD70B51D4D84000C352959002901D01A
:10492000084670BD01021E23042219480A3158F7B7
:1049300061F80721017001214170285170BD10B547
:104940000446FFF7E6FF58F770F8104A0020A10070
:104950000C32505010BD70B50546FFF7DAFF044623
:104960007A2045430C4808222D18287F2077688A32
:10497000608229462046143114305AF7BDFBA91C29
:104980001022A01C5AF7B8FB70BD0000488EFC072F
:10499000140E0000C865FC07B48DFC077047704713
:1049A00070B50D460446FFF7BFFE002806D08D48BF
:1049B0002A460421201858F75CFB70BDFBF77CFFEA
:1049C0008848042208231146801E58F713F84560D2
:1049D000047058F72AF870BDF8B5834C069D061987
:1049E0000024002E26D0012E0CD0814F7F4B3A465A
:1049F000283A022E0AD07C49C91E41180A2927D319
:104A00000120F8BD00F0C5F8287039E00878461E8E
:104A1000092E0DD88000001F105898422FD1B000E9
:104A20003B5813504A6808781146FFF7B9FF26E053
:104A300000BE24E04A68002A02D06E48824200D9B3
:104A400000BE087867494018042158F712FB16E0A9
:104A50006549891E4018C0B2411E0929E8D8860060
:104A6000B218803AD16F002909D0994207D0624B21
:104A7000994204D0D467F219803AD46788472C70E1
:104A80000020F8BD0A46010010B55A4801D0814205
:104A900000D900BE0020564B283B84001C59002C36
:104AA00004D0401C0A28F8DB002010BD84001A51F5
:104AB000401C0406240EF7D02046FFF771FF204665
:104AC00010BD70B50446401E09281BD84848A100F7
:104AD00028380D18803DE86F002813D0464EB042AC
:104AE00010D040480421201858F70DFB3D480422FF
:104AF00008231146401EEE6757F77CFF047057F7F6
:104B000094FF70BD00BE70BDF8B5044639480D0075
:104B100001D0854200D900BE601E092823D8344840
:104B2000A70028383E18803EF06F00281BD02F4980
:104B3000884218D02B480421201858F7E4FA2C4852
:104B4000F16F38188038C1672848F067254804227B
:104B500008231146401E57F74DFF0470456057F774
:104B600064FF2046F8BD00BE0020F8BD70B5204DA2
:104B70000024214E283DA0002858002805D0B0422E
:104B800003D0601CC0B2FFF79CFF641C0A2CF2DB50
:104B900070BD10B508780C46411E09291FD8820047
:104BA0001348121F28388258134B9A4205D100220D
:104BB000890042502830425012E0890040580B4989
:104BC00088420DD1042208231146064857F712FFE8
:104BD000217801706168416057F727FF00E000BE4F
:104BE000002010BD03040000FFFBFFFF9F49FC07EE
:104BF000888EFC07FCFF3F009D49FC070021164AF8
:104C000006E0834203D11C20414388187047491CA9
:104C10001C234B43D35CFF2BF3D10020704770471C
:104C200010B51823042209210C4857F7E3FE044667
:104C30001B202070FD205EF72FFD6070FD2060803E
:104C40000420A0800021E180E1602161A182204652
:104C500057F7EBFE10BD0000D065FC071B0D0000F0
:104C60003EB51D46069B0024009313460194029412
:104C70002A465EF73DFB3EBD10B5022804D003284E
:104C800002D05EF757FB10BD042010BD10B58A425C
:104C900001D35EF765FB10BD70B53E480022C169C7
:104CA000D243002901D0114600E00121CB174C0E60
:104CB000DB012343CC01C16137490D684E682C43A9
:104CC00033430C604B60036A002B01D0144600E0B4
:104CD0000124E317250E1B022B4304620D682402F6
:104CE0004E682C4333430C604B60436A002B01D069
:104CF000144600E00124E317E50D5B022B434462F8
:104D00000D6864024E682C4333430C604B6043696A
:104D1000002B00D101224261D017D30E400118436D
:104D20000C6852014B68224318430A60486070BD0A
:104D300038B50024FF222346013207212046009483
:104D4000FCF73FFC032500232D022A4608211846C4
:104D50000094FCF736FC00232A46092118460094EB
:104D6000FCF72FFC00231A46052118460094FCF797
:104D700028FC38BD10B51B20FCF736FB01F086F887
:104D8000FFF7D6FF0548012182898A430A438281C1
:104D900010BD0000688CFC07608CFC07000300500D
:104DA00070B5BF4CBF49E06A00251430E06288420C
:104DB00003D3206BE562401C2063BB49206B884213
:104DC00000D32563A068142807D208210020FCF72F
:104DD000C2FBA068401CA06070BDA078012600281E
:104DE00007D10721FCF714FC002812D0A078002876
:104DF000F2D0206900280ED07D21E06809018842A8
:104E00007ED208210020FCF7A6FBE068401CE06091
:104E100070BDA670EDE7606832281DD2C00711D0C2
:104E200008210020FCF797FB6068312806D2072193
:104E30000020FCF7EDFB6169401860616068401C70
:104E4000606070BD08210020FCF7A0FB60682F287F
:104E5000F4D260694000F0E76069A061216A3129FD
:104E600000D32562616A312900D36562A16A3129C4
:104E700000D3A5626178002904D18C4908602064C0
:104E8000E0636670216C884229D2E26B904226D2A0
:104E90007D23121ADB009A4221D9E063236B6363FE
:104EA000226A521C2262616A9200491C6162A66AEF
:104EB000761CA6627A4E4436B05088003146C8311E
:104EC0000B5005210020FCF7A3FB7949002801D0F5
:104ED000784800E07848A26A9200885009E0884249
:104EE00007D3E169491CE161F72902D32064E56138
:104EF000E063656165602069401C206170BDFFE76B
:104F0000A570E5602561A560F8E710B5002804D01C
:104F100009210020FCF73AFB10BD09210020FCF715
:104F20001AFB10BD70B55E4C0646A06B0D460028FE
:104F300007D17D20000100F0C7F91421A06300F023
:104F4000E3F92078002808D15C48FCF7E1FF012153
:104F50001420FCF7E6FF0120207029463046FEF7BA
:104F60008EFFCBE710B504460020FFF7CEFF2046AA
:104F7000FEF793FF10BD1CB5514A06CA019200917D
:104F8000062269465AF7B8F81CBD1CB55223042204
:104F900009214C4857F72EFD0446FFF734F9014626
:104FA000522220465AF7A8F847A103C90090019160
:104FB0000620E0720246204669460C305AF79CF8FB
:104FC000204657F732FD0221042057F744FF40489E
:104FD0000422027000A9401C02315AF78DF81CBD52
:104FE000F8B51C463B4BC31828D03B4DEB4225D1AE
:104FF0000D464B882A490B2B8E6B38D006DC022BD2
:105000001DD0052B23D0082B04D128E00E2B36D041
:10501000112B3CD008232146304857F7EBFC297868
:105020000C2251432E4A8918897801706988418081
:10503000002181808021817157F7F7FCF8BD13466C
:1050400001462A463046009400F04CF8F8BD13465D
:1050500001462A463046009400F06CF8F8BD13462D
:1050600001462A463046009400F086F8F8BD134603
:1050700001462A463046009400F0A0F8F8BD1346D9
:1050800001462A463046009400F0BAF8F8BD1346AF
:1050900001462A463046009400F0DAF8F8BD0000D8
:1050A000546AFC0750C3000000CA9A3BBC69FC0765
:1050B000286CFC07ADDE0000EFBE0000A14DFC0730
:1050C000AC68FC070D0D00000509F09F98BA0000C0
:1050D0007A8DFC07EFF1FFFF0D11FFFF05FD0000CA
:1050E0006E8DFC0770B51646FD203DF76CFB6C4DD0
:1050F0000146288804228000083083B2694857F7A7
:1051000079FC044630780C21484367494018807880
:10511000207070886080286864498200A280002026
:10512000A071E01D59F7E8FF01202860204657F7DD
:105130007CFC70BD70B51546FD203DF744FB014673
:105140000C230422574857F755FC044628780C21B5
:105150004843554904224018807820706888608050
:105160000420A0800020A0715149E01D59F7C4FF20
:10517000204657F75AFC70BD70B51546FD203DF727
:1051800022FB01460C230422464857F733FC044611
:1051900028780C2148434449042240188078207024
:1051A000688860800420A0800020A0714149E01D33
:1051B00059F7A2FF204657F738FC70BD70B5154669
:1051C000FD203DF700FB01460C230422354857F72C
:1051D00011FC044628780C21484333490422401826
:1051E00080782070688860800420A0800020A071F2
:1051F0002B49E01D59F780FF204657F716FC70BD7C
:1052000070B51646FD203DF7DEFA2B4D0146288885
:1052100004228000083083B2224857F7EBFB044693
:1052200030780C21484320494018807820707088DD
:105230006080286821498200A2800020A071E01DC2
:1052400059F75AFF01202860204657F7EEFB70BD42
:1052500070B51646FD203DF7B6FA194D014628886F
:1052600004228000083083B20E4857F7C3FB04467F
:1052700030780C2148430C494018807820707088A1
:10528000608028680F498200A2800020A071E01D84
:1052900059F732FF01202860204657F7C6FB70BD42
:1052A000746AFC0705FD00006E8DFC07986AFC0718
:1052B000BC69FC07946AFC07786AFC07606BFC0712
:1052C0007C6AFC07286CFC0710B50446FF20D1302F
:1052D00000F044FE002816D00E49046041607D2194
:1052E000C9008160002101731422026141610176CD
:1052F000C1610162416281620122C1620263416354
:1053000032228263C16310BD002802D000220273E2
:1053100001617047DF5EF800F8B507460120002301
:10532000024600901946032044F76CF80446022117
:1053300080300170FF4DFE482A6843881146FF31D6
:10534000F7310B8680884886FB48066A0123DB0616
:105350009E431E430662FF320020FF3238325082E5
:105360009082D0821D200882F4484884F448C88284
:10537000F448088300204882384644F783FB0146FE
:105380002868FF30F730C28B920992010A43C2832A
:10539000ED48416800208847002C02D0204643F7A2
:1053A0001AFC2046F8BDFFB58BB0064616980027BC
:1053B000022821D00D9801881498814278D37188F1
:1053C000084640383F2802D8159850F717FC0C982B
:1053D000361D0088149A80190E9959F78DFE0C9885
:1053E0000188149808180C9908800D980188149861
:1053F000081A0D9908805CE100200E9D07906978DD
:105400002C78090221433180E978AC7809022143E4
:1054100071808C46403904242D1D024603468E4679
:10542000402900D32878614604291FD0052914D0CB
:10543000062918D070463F283DD8159850F7DEFB56
:105440000006000E04D0C148008D0006C00F30D009
:1054500002230120BE4A002712E0697800290FD0FC
:10546000BC4A17230CE0BC4A0F2309E0522802D0A3
:10547000D22802D002E0142000E01520B74A1F23F2
:10548000002A1AD0984218D28000105804900028A0
:1054900013D000200890059070884038402803D32E
:1054A0002878052430716D1C701D00900498B5E0BB
:1054B000FEE03027F0E03327EEE07088042872D158
:1054C0000627E9E0522862D00CDC4B283FD004DCF0
:1054D00041286AD0422858D111E04C2820D05028C9
:1054E00053D140E0632830D004DC572818D061281D
:1054F0004BD19BE06C2864D0772846D109E0009816
:10550000297801700098641C401CA4B26D1C0090A6
:1055100081E00498401C04900178089881427AD177
:105520000098A41C401C41084900881C0090687821
:105530002A780002104308800599AD1CA4B2002906
:1055400069D008900020059065E00120FBE710225B
:105550002946009859F7D0FD009810341030A4B2B5
:105560001035009057E0204640301499039088424F
:105570000BD840222946009859F7BEFD00984030CC
:1055800000900398403584B245E0342743E0082278
:105590002946009859F7B0FD009808340830A4B2A5
:1055A0000835009037E068E0FFE7062229460098BA
:1055B00059F7A2FD0098A41D801DA4B2AD1D009056
:1055C00029E01498001B80B203903088001B001D56
:1055D00081B2012007900498401C04900098401C60
:1055E0004008400000900498007857281CD04228BA
:1055F000CBD100980170090A417000982946801C9F
:105600000090039A59F778FD03980399201884B203
:105610000098401800900498401C049000780028DE
:105620001ED0002F17D01BE04908E2E71498001B9A
:1056300081B200980391401C400840000090012076
:105640000A4607902946009859F756FD03996018B5
:1056500084B20098DDE70D990988A14200D331E7B3
:105660000D980088A04208D304990978002904D134
:105670000799002903D1A04201D034270CE00D99ED
:10568000001B08800C9801880098801B001F0818D8
:105690000C99002F08800CD07088042809D00628A7
:1056A00007D04038402804D30E984079707100E04C
:1056B000342738460FB0F0BDFFB581B01F461646FF
:1056C0000C46104657F7DCFB00257F2802D02189C5
:1056D000062909D03B4632462146019850F721FE63
:1056E0000546284605B0F0BDC00601D50225F8E7FD
:1056F00020780028F5D1300AA11D3CF7AAFFF0E779
:10570000F1B598B018983DF7A2F90446189805210C
:105710000079134A4006C00F099068460184618BE6
:1057200008460A38904276D2E08A062873D319E0F8
:1057300030BCFC074CB9FC07C000004010800000E2
:10574000294100007671000058BFFC0748BEFC07E5
:105750003803F2074003F2079C03F207D803F2076D
:10576000770C00001922D201904254D8228BFF23DB
:10577000F5339A424FD8521C9300D2184243521C20
:105780000A23521059438A4245DC217F00290CD15B
:10579000617F002909D1A17F002906D1E17F00297D
:1057A00003D12021095DC90635D0274620377978F5
:1057B000C906C90E491F0C292DD2A18A81422AD8B7
:1057C000E17C002927D0421E082A01D9082000E0E8
:1057D000401E81421FD8684641F7FAF900281AD1C5
:1057E000FE4D0622286221460BA859F785FCA879B0
:1057F0002E46803E00287DD06079800901280BD09C
:105800000BA8099947F7B3FC010003D03820405C8E
:10581000002870D09CE009E1F06A807A012808D065
:10582000042806D00BA847F70FFD286200284ED0A9
:1058300054E0686A06220BA9323059F781FC00282F
:1058400006D00BA847F700FD2862002802D012E01E
:10585000686AF9E700210BA847F70CFD2862F16A96
:10586000897A012905D18B071A6849068A430A43B8
:105870001A60002811D0F16A286A062225301031FA
:1058800059F75EFC002808D1286AF16A2030C07AF6
:10589000C97B884201D1286A1EE0D148D1490088DD
:1058A000C96880B20622504308183DF7D5F8014672
:1058B00014A80622023059F71FFC13AA00213C202D
:1058C0003DF797FB0121B06D42F7BEFDAAE011A99B
:1058D0000BA847F7CFFC2862002839D001460A9070
:1058E00006220FA8253159F707FC0A9908AA20318A
:1058F000C97A01E042E025E00FA847F71BFB00282A
:1059000012D0286A2030C07A002809D16846B649EA
:10591000008C46F782FA08AA0121B34847F70AFB30
:1059200068460BA9008C0AE008AA012111A847F7D4
:1059300001FB00280CD0296A6846008C323146F7FA
:1059400082FA05E00A18527D002A08D010286DDB83
:10595000F06A407A022806D0032804D00EE0401CEA
:105960001028EFDBF4E76846008C052806D308AA68
:105970000BA8099947F7DEFA002857D0002269469C
:10598000204647F780FB002850D1F06A407A022871
:105990000BD0032809D00023684602880BA8099978
:1059A00047F792FB002802D02FE00123F4E7E18AB9
:1059B00068460181218B4181618B81817878062243
:1059C0004109684681757878C106C90E68464175F7
:1059D00021460E3059F790FB189800794006C10F08
:1059E000684601750388214602A8B26D42F7D2F8D5
:1059F0000146B06502A83DF74AFB0020B06521468C
:105A000068461C31008841F736F944F7B5F9734C04
:105A10002034207A002805D00021092057F773FB95
:105A2000002020720021084657F715FA19B0F0BD82
:105A3000F8B56E4C064685000F4660594C21095C4E
:105A400024290ED140691022791D2E3059F754FBBC
:105A500061592520403108730022114630464FF726
:105A600020FA60594C21095C0C291FD14069102291
:105A7000791D2E3059F740FB60595F214069095C60
:105A800009072DD401462E3110221E3059F758FB3C
:105A900000280CD0605909214030017330464FF77F
:105AA0001DFF0146002230464EF77AFDF8BD042165
:105AB000684601706A46052130464EF71BFF68466E
:105AC0000178602001436846017030464FF706FFB9
:105AD000014668460278012330464EF776FEF8BD4F
:105AE00030464FF7FBFE012809D0605907214030AE
:105AF00001730022114630464FF7D3F9F8BD6159C2
:105B000000204969C03188716059042142693046DA
:105B10001E324EF7EFFE605941694031897F0029FE
:105B200007D01A2140300173002130464FF743FA65
:105B3000F8BD1B214030017330464FF791FAF8BD94
