:0200000407FCF7
:100000000886FC070101FC070901FC072101FC0728
:1000100000000000000000000000000000000000E0
:100020000000000000000000000000003901FC0793
:1000300000000000000000003B01FC07B703FC07C4
:100040003F01FC073F01FC073903FC073D03FC07A8
:100050003F01FC073F01FC073F01FC073F01FC0794
:100060003F01FC073F01FC071102FC071502FC07DA
:100070001902FC071D02FC072102FC073F01FC07D7
:100080003F01FC073F01FC073F01FC073F01FC0764
:100090003F01FC073F01FC073F01FC073F01FC0754
:1000A0000448854600F0B0FA00480047A304FC0766
:1000B000C046C0460886FC0710B50F4906200880D8
:1000C0000F2000F00CF8012000F009F8002000F0EB
:1000D00006F8002005210907088062B610BD002837
:1000E00009DBC106C90E0120884004490860BFF33E
:1000F0004F8FBFF36F8F70470034005080E100E0F6
:100100000F4880470F48004704207146084203D03B
:10011000EFF309800C490847EFF308800A490847C4
:1001200004207146084203D0EFF3098007490847CD
:10013000EFF3088005490847FEE7FEE7FEE7FEE724
:10014000B900FC07A100FC075301FC075101FC07A3
:10015000FEE7FEE7704710B5032800D10420394CB4
:1001600040010019490008181A43C28010BD032835
:1001700000D10420334A4001801801228A40828045
:100180007047032800D104202E4A40018018012224
:100190008A404280704770B506460498144600288D
:1001A0000D46304602D0FFF7ECFF01E0FFF7DFFF1E
:1001B000224629463046FFF7CEFF70BD70B50124B8
:1001C00021460A3881400D4688B200F02BF8844061
:1001D0001D48C189A9430C43C48170BD10B50446B4
:1001E0000A3804280AD82046FFF7E8FF1749A0007C
:1001F00040188038806D002801D0804710BD002C49
:10020000FCDBE106C90E012088401149086010BDE1
:100210000A20E3E70B20E1E70C20DFE70D20DDE714
:100220000E20DBE700280BD0411E4840C003010C24
:10023000002002E04908401C80B20029FAD1704732
:100240001020704700300050001400500886FC0752
:1002500080E200E0534930B4884201D0012100E03F
:100260000021514A4901891808E0838ADB07DB0F26
:1002700012D00388541C8D68CC81AB54CA898B89F9
:100280009A42F2D382885208520082808A69002AF8
:1002900002D0C88930BC104730BC7047F8B5414D1A
:1002A000414E044620890007000F062826D009DCAD
:1002B000012840D002281DD00428F3D12046FFF7A2
:1002C000C9FFEFE7072828D00C28EBD1AC4201D0BA
:1002D000012000E00020400187192046FFF7BAFF07
:1002E000A18849084900A180B9690029DAD0F889B4
:1002F0008847D7E7204600F023F8D3E72046AC42F2
:1003000001D0012100E00021490189190A69002A70
:10031000C8D0818A9E2319400BE02046AC4201D010
:10032000012100E00021490189190A69002AB9D098
:1003300001219047B6E7F8BD1A48AFE71B48ADE783
:10034000184930B4884201D0012100E00021164A4A
:10035000490189180EE003891B069B0F032B1BD054
:10036000838A9B06DB0F002B96D0531C0C68CB8036
:10037000A25C0280CA888B889A42ECD382880223CE
:100380009A438280828880239A4382804A69002A25
:1003900082D0888830BC10477C231B5A9B07DB0F18
:1003A000E1E779E7001000501C86FC0700110050BF
:1003B00013490860704712480068002800D00047C1
:1003C0007047104A13695B085B00136153691B0E89
:1003D0001B06401E034353619069000E00069061A6
:1003E00010690223984349000843106110690421F1
:1003F00088431061106901210843106170470000B3
:100400005C86FC0700E000E018B5164900220A608F
:1004100005200007448A40231C434482448A9C43AD
:1004200044824A61104B8B6201231B04CB62048817
:1004300080231C4304800092521C0092642AFBDB40
:100440000A68D208D2000A6001889943018018BD69
:100450000449002802D0FF20023000E0012008609B
:10046000704700000000F407204F101A10B50F4C21
:100470002068002806D000210120FFF778FE002028
:10048000206010BD00210120FFF77BFE0120F7E76F
:1004900010B50748FFF78CFF01210648FFF791FFD1
:1004A00010BD00F054F8FFF7F3FFFEE70080FC07F3
:1004B0006D04FC0740420F0038B505242407208A4C
:1004C000022188432082A08A0007FCD50A4841887F
:1004D000FF220132114341800020034603220146DE
:1004E000009012020120FFF756FE608A2021884307
:1004F0000843608238BD00002000005008B53D4927
:1005000008803D494A8801231A434A80002200920C
:100510000099491C00911429FADB052109074B8930
:100520009B089B005B1C4B814B895B06FCD548807C
:10053000192080010092521C00928242FBDB488904
:1005400080088000488148890006FCD508BD38B580
:100550002A4908200880FFF7FDFD27482030408801
:10056000C046C046244860304188C908C90041805F
:10057000214D698989050AD54188C2130905090DEC
:100580008918418041887822914340314180052477
:1005900024076088FFF7B2FF688840084000688041
:1005A000174800210160638A402213436382638AF3
:1005B000934363824161134A826201221204C26240
:1005C000208880221043208000910098401C0090D9
:1005D0006428FADB0020FFF73BFFFFF715FFFFF76A
:1005E0006BFFA220E0826888E0218843A030688009
:1005F00038BD00006086FC0720000050003300502A
:100600000000F407204F101A064C0125064E05E0A5
:10061000E36807CC2B430C3C98471034B442F7D323
:10062000FFF742FD4C06FC076C06FC0702E008C819
:10063000121F08C1002AFAD170477047002001E05C
:1006400001C1121F002AFBD1704700006C06FC0795
:100650000080FC07040000002C06FC077006FC0765
:100660000480FC07600600003C06FC070000000058
:0400000507FC00A153
:00000001FF
